{
  "contractName": "CoinFlip",
  "abi": [
    {
      "constant": true,
      "inputs": [
        {
          "name": "",
          "type": "bytes32"
        }
      ],
      "name": "queries",
      "outputs": [
        {
          "name": "",
          "type": "address"
        }
      ],
      "payable": false,
      "stateMutability": "view",
      "type": "function"
    },
    {
      "constant": true,
      "inputs": [],
      "name": "owner",
      "outputs": [
        {
          "name": "",
          "type": "address"
        }
      ],
      "payable": false,
      "stateMutability": "view",
      "type": "function"
    },
    {
      "constant": true,
      "inputs": [
        {
          "name": "",
          "type": "address"
        }
      ],
      "name": "players",
      "outputs": [
        {
          "name": "balance",
          "type": "uint256"
        },
        {
          "name": "latestBet",
          "type": "uint256"
        },
        {
          "name": "waiting",
          "type": "bool"
        }
      ],
      "payable": false,
      "stateMutability": "view",
      "type": "function"
    },
    {
      "anonymous": false,
      "inputs": [
        {
          "indexed": false,
          "name": "description",
          "type": "string"
        }
      ],
      "name": "LogNewProvableQuery",
      "type": "event"
    },
    {
      "anonymous": false,
      "inputs": [
        {
          "indexed": false,
          "name": "randomNumber",
          "type": "uint256"
        }
      ],
      "name": "generatedRandomNumber",
      "type": "event"
    },
    {
      "anonymous": false,
      "inputs": [
        {
          "indexed": false,
          "name": "queryId",
          "type": "bytes32"
        }
      ],
      "name": "oracleId",
      "type": "event"
    },
    {
      "anonymous": false,
      "inputs": [
        {
          "indexed": false,
          "name": "playerWallet",
          "type": "address"
        }
      ],
      "name": "wallet",
      "type": "event"
    },
    {
      "anonymous": false,
      "inputs": [
        {
          "indexed": false,
          "name": "bet",
          "type": "uint256"
        }
      ],
      "name": "betAmount",
      "type": "event"
    },
    {
      "constant": true,
      "inputs": [],
      "name": "getContractBalance",
      "outputs": [
        {
          "name": "",
          "type": "uint256"
        }
      ],
      "payable": false,
      "stateMutability": "view",
      "type": "function"
    },
    {
      "constant": true,
      "inputs": [],
      "name": "userBalance",
      "outputs": [
        {
          "name": "balance",
          "type": "uint256"
        }
      ],
      "payable": false,
      "stateMutability": "view",
      "type": "function"
    },
    {
      "constant": false,
      "inputs": [],
      "name": "withdrawPlayerBalance",
      "outputs": [],
      "payable": false,
      "stateMutability": "nonpayable",
      "type": "function"
    },
    {
      "constant": false,
      "inputs": [],
      "name": "withdrawContractBalance",
      "outputs": [],
      "payable": false,
      "stateMutability": "nonpayable",
      "type": "function"
    },
    {
      "constant": false,
      "inputs": [
        {
          "name": "_queryId",
          "type": "bytes32"
        },
        {
          "name": "_result",
          "type": "string"
        }
      ],
      "name": "__callback",
      "outputs": [],
      "payable": false,
      "stateMutability": "nonpayable",
      "type": "function"
    },
    {
      "constant": false,
      "inputs": [
        {
          "name": "_myid",
          "type": "bytes32"
        },
        {
          "name": "_result",
          "type": "string"
        },
        {
          "name": "_proof",
          "type": "bytes"
        }
      ],
      "name": "__callback",
      "outputs": [],
      "payable": false,
      "stateMutability": "nonpayable",
      "type": "function"
    },
    {
      "constant": false,
      "inputs": [
        {
          "name": "amount",
          "type": "uint256"
        }
      ],
      "name": "playerBet",
      "outputs": [],
      "payable": true,
      "stateMutability": "payable",
      "type": "function"
    }
  ],
  "bytecode": "0x6080604052336000806101000a81548173ffffffffffffffffffffffffffffffffffffffff021916908373ffffffffffffffffffffffffffffffffffffffff160217905550612e2f806100536000396000f3fe6080604052600436106100a4576000357c0100000000000000000000000000000000000000000000000000000000900463ffffffff1680630dea35bf146100a957806321dfb600146100d757806327dc297e1461015257806338bbfa50146102245780636f9fb98a1461038d5780638da5cb5b146103b8578063bf1527651461040f578063bfab3db91461043a578063d325101a14610451578063e2eb41ff14610468575b600080fd5b6100d5600480360360208110156100bf57600080fd5b81019080803590602001909291905050506104df565b005b3480156100e357600080fd5b50610110600480360360208110156100fa57600080fd5b81019080803590602001909291905050506106f3565b604051808273ffffffffffffffffffffffffffffffffffffffff1673ffffffffffffffffffffffffffffffffffffffff16815260200191505060405180910390f35b34801561015e57600080fd5b506102226004803603604081101561017557600080fd5b81019080803590602001909291908035906020019064010000000081111561019c57600080fd5b8201836020820111156101ae57600080fd5b803590602001918460018302840111640100000000831117156101d057600080fd5b91908080601f016020809104026020016040519081016040528093929190818152602001838380828437600081840152601f19601f820116905080830192505050505050509192919290505050610726565b005b34801561023057600080fd5b5061038b6004803603606081101561024757600080fd5b81019080803590602001909291908035906020019064010000000081111561026e57600080fd5b82018360208201111561028057600080fd5b803590602001918460018302840111640100000000831117156102a257600080fd5b91908080601f016020809104026020016040519081016040528093929190818152602001838380828437600081840152601f19601f8201169050808301925050505050505091929192908035906020019064010000000081111561030557600080fd5b82018360208201111561031757600080fd5b8035906020019184600183028401116401000000008311171561033957600080fd5b91908080601f016020809104026020016040519081016040528093929190818152602001838380828437600081840152601f19601f820116905080830192505050505050509192919290505050610985565b005b34801561039957600080fd5b506103a26109a9565b6040518082815260200191505060405180910390f35b3480156103c457600080fd5b506103cd6109c8565b604051808273ffffffffffffffffffffffffffffffffffffffff1673ffffffffffffffffffffffffffffffffffffffff16815260200191505060405180910390f35b34801561041b57600080fd5b506104246109ed565b6040518082815260200191505060405180910390f35b34801561044657600080fd5b5061044f610a37565b005b34801561045d57600080fd5b50610466610b1e565b005b34801561047457600080fd5b506104b76004803603602081101561048b57600080fd5b81019080803573ffffffffffffffffffffffffffffffffffffffff169060200190929190505050610c56565b6040518084815260200183815260200182151515158152602001935050505060405180910390f35b80341415156104ed57600080fd5b60001515600660003373ffffffffffffffffffffffffffffffffffffffff1673ffffffffffffffffffffffffffffffffffffffff16815260200190815260200160002060020160009054906101000a900460ff16151514151561054f57600080fd5b6000809050600062030d409050600061056a83600184610c8d565b9050336007600083815260200190815260200160002060006101000a81548173ffffffffffffffffffffffffffffffffffffffff021916908373ffffffffffffffffffffffffffffffffffffffff1602179055506000600660003373ffffffffffffffffffffffffffffffffffffffff1673ffffffffffffffffffffffffffffffffffffffff168152602001908152602001600020905084816001018190555060018160020160006101000a81548160ff0219169083151502179055507fa927109c283ca70b4dd7f2ae80d1981bf9f5fee2c408485ef548283a9faea0b1826040518082815260200191505060405180910390a17fc4dc360d0a9c0677a3379ae0a3d81e887f761e65fdf3d7e00859d1bcd3c473896040518080602001828103825260368152602001807f50726f7661626c65207175657279207761732073656e742c207374616e64696e81526020017f6720627920666f722074686520616e737765722e2e2e0000000000000000000081525060400191505060405180910390a15050505050565b60076020528060005260406000206000915054906101000a900473ffffffffffffffffffffffffffffffffffffffff1681565b61072e61125b565b73ffffffffffffffffffffffffffffffffffffffff163373ffffffffffffffffffffffffffffffffffffffff1614151561076757600080fd5b60006002826040516020018082805190602001908083835b6020831015156107a4578051825260208201915060208101905060208303925061077f565b6001836020036101000a03801982511681845116808217855250505050505090500191505060405160208183030381529060405280519060200120600190048115156107ec57fe5b06905060006007600085815260200190815260200160002060009054906101000a900473ffffffffffffffffffffffffffffffffffffffff1690506000600660008373ffffffffffffffffffffffffffffffffffffffff1673ffffffffffffffffffffffffffffffffffffffff168152602001908152602001600020905060008160020160006101000a81548160ff02191690831515021790555060008160010154905060018414156108ac578082600001600082825401925050819055505b7fa56cc439a4a9c2dd18e692235b83c464c62e8126fedba30d1b52d717fecc707983604051808273ffffffffffffffffffffffffffffffffffffffff1673ffffffffffffffffffffffffffffffffffffffff16815260200191505060405180910390a17ff299f526007743af0417805f3b871b52042051cfb84ac9bb89cd6aaf09fec3b0816040518082815260200191505060405180910390a17fc13d60fe9dffdb6908d2d446cd18134373a51db0738ee04f296eeb9128121cbc846040518082815260200191505060405180910390a1505050505050565b60006001026004600080600102815260200190815260200160002081905550505050565b60003073ffffffffffffffffffffffffffffffffffffffff1631905090565b6000809054906101000a900473ffffffffffffffffffffffffffffffffffffffff1681565b6000600660003373ffffffffffffffffffffffffffffffffffffffff1673ffffffffffffffffffffffffffffffffffffffff16815260200190815260200160002060000154905090565b6000809054906101000a900473ffffffffffffffffffffffffffffffffffffffff1673ffffffffffffffffffffffffffffffffffffffff163373ffffffffffffffffffffffffffffffffffffffff16141515610a9257600080fd5b60003073ffffffffffffffffffffffffffffffffffffffff1631111515610ab857600080fd5b60003073ffffffffffffffffffffffffffffffffffffffff163190503373ffffffffffffffffffffffffffffffffffffffff166108fc829081150290604051600060405180830381858888f19350505050158015610b1a573d6000803e3d6000fd5b5050565b6000600660003373ffffffffffffffffffffffffffffffffffffffff1673ffffffffffffffffffffffffffffffffffffffff16815260200190815260200160002060000154111515610b6f57600080fd5b6000600660003373ffffffffffffffffffffffffffffffffffffffff1673ffffffffffffffffffffffffffffffffffffffff1681526020019081526020016000206000015490503373ffffffffffffffffffffffffffffffffffffffff166108fc829081150290604051600060405180830381858888f19350505050158015610bfc573d6000803e3d6000fd5b506000600660003373ffffffffffffffffffffffffffffffffffffffff1673ffffffffffffffffffffffffffffffffffffffff16815260200190815260200160002090508181600001600082825403925050819055505050565b60066020528060005260406000206000915090508060000154908060010154908060020160009054906101000a900460ff16905083565b60008083118015610c9f575060208311155b1515610caa57600080fd5b600a84029350606060016040519080825280601f01601f191660200182016040528015610ce65781602001600182028038833980820191505090505b509050837f010000000000000000000000000000000000000000000000000000000000000002816000815181101515610d1b57fe5b9060200101907effffffffffffffffffffffffffffffffffffffffffffffffffffffffffffff1916908160001a905350606060206040519080825280601f01601f191660200182016040528015610d815781602001600182028038833980820191505090505b509050606060206040519080825280601f01601f191660200182016040528015610dba5781602001600182028038833980820191505090505b5090506000610dc76115d1565b905060208352424118600143034018602084015260208252806020830152606060206040519080825280601f01601f191660200182016040528015610e1b5781602001600182028038833980820191505090505b509050886020820152606060086040519080825280601f01601f191660200182016040528015610e5a5781602001600182028038833980820191505090505b509050610e6d8260186008846000611947565b50610e76612d1c565b6080604051908101604052808781526020018881526020018681526020018481525090506000610edc6040805190810160405280600681526020017f72616e646f6d0000000000000000000000000000000000000000000000000000815250838c6119a8565b9050606060086040519080825280601f01601f191660200182016040528015610f145781602001600182028038833980820191505090505b50905060208401517f0100000000000000000000000000000000000000000000000000000000000000810460278301537e01000000000000000000000000000000000000000000000000000000000000810460268301537d010000000000000000000000000000000000000000000000000000000000810460258301537c0100000000000000000000000000000000000000000000000000000000810460248301537b01000000000000000000000000000000000000000000000000000000810460238301537a010000000000000000000000000000000000000000000000000000810460228301537901000000000000000000000000000000000000000000000000008104602183015378010000000000000000000000000000000000000000000000008104602083015350611248828285600160048110151561105557fe5b6020020151600287600060048110151561106b57fe5b60200201516040518082805190602001908083835b6020831015156110a55780518252602082019150602081019050602083039250611080565b6001836020036101000a038019825116818451168082178552505050505050905001915050602060405180830381855afa1580156110e7573d6000803e3d6000fd5b5050506040513d60208110156110fc57600080fd5b810190808051906020019092919050505087600260048110151561111c57fe5b60200201516040516020018085805190602001908083835b6020831015156111595780518252602082019150602081019050602083039250611134565b6001836020036101000a03801982511681845116808217855250505050505090500184805190602001908083835b6020831015156111ac5780518252602082019150602081019050602083039250611187565b6001836020036101000a03801982511681845116808217855250505050505090500183815260200182805190602001908083835b60208310151561120557805182526020820191506020810190506020830392506111e0565b6001836020036101000a03801982511681845116808217855250505050505090500194505050505060405160208183030381529060405280519060200120611d69565b8199505050505050505050509392505050565b60008073ffffffffffffffffffffffffffffffffffffffff16600260009054906101000a900473ffffffffffffffffffffffffffffffffffffffff1673ffffffffffffffffffffffffffffffffffffffff1614806112e3575060006112e1600260009054906101000a900473ffffffffffffffffffffffffffffffffffffffff16611d85565b145b156112f4576112f26000611d90565b505b600260009054906101000a900473ffffffffffffffffffffffffffffffffffffffff1673ffffffffffffffffffffffffffffffffffffffff166338cc48316040518163ffffffff167c0100000000000000000000000000000000000000000000000000000000028152600401602060405180830381600087803b15801561137a57600080fd5b505af115801561138e573d6000803e3d6000fd5b505050506040513d60208110156113a457600080fd5b810190808051906020019092919050505073ffffffffffffffffffffffffffffffffffffffff16600160009054906101000a900473ffffffffffffffffffffffffffffffffffffffff1673ffffffffffffffffffffffffffffffffffffffff1614151561150d57600260009054906101000a900473ffffffffffffffffffffffffffffffffffffffff1673ffffffffffffffffffffffffffffffffffffffff166338cc48316040518163ffffffff167c0100000000000000000000000000000000000000000000000000000000028152600401602060405180830381600087803b15801561149157600080fd5b505af11580156114a5573d6000803e3d6000fd5b505050506040513d60208110156114bb57600080fd5b8101908080519060200190929190505050600160006101000a81548173ffffffffffffffffffffffffffffffffffffffff021916908373ffffffffffffffffffffffffffffffffffffffff1602179055505b600160009054906101000a900473ffffffffffffffffffffffffffffffffffffffff1673ffffffffffffffffffffffffffffffffffffffff1663c281d19e6040518163ffffffff167c010000000000000000000000000000000000000000000000000000000002815260040160206040518083038186803b15801561159157600080fd5b505afa1580156115a5573d6000803e3d6000fd5b505050506040513d60208110156115bb57600080fd5b8101908080519060200190929190505050905090565b60008073ffffffffffffffffffffffffffffffffffffffff16600260009054906101000a900473ffffffffffffffffffffffffffffffffffffffff1673ffffffffffffffffffffffffffffffffffffffff16148061165957506000611657600260009054906101000a900473ffffffffffffffffffffffffffffffffffffffff16611d85565b145b1561166a576116686000611d90565b505b600260009054906101000a900473ffffffffffffffffffffffffffffffffffffffff1673ffffffffffffffffffffffffffffffffffffffff166338cc48316040518163ffffffff167c0100000000000000000000000000000000000000000000000000000000028152600401602060405180830381600087803b1580156116f057600080fd5b505af1158015611704573d6000803e3d6000fd5b505050506040513d602081101561171a57600080fd5b810190808051906020019092919050505073ffffffffffffffffffffffffffffffffffffffff16600160009054906101000a900473ffffffffffffffffffffffffffffffffffffffff1673ffffffffffffffffffffffffffffffffffffffff1614151561188357600260009054906101000a900473ffffffffffffffffffffffffffffffffffffffff1673ffffffffffffffffffffffffffffffffffffffff166338cc48316040518163ffffffff167c0100000000000000000000000000000000000000000000000000000000028152600401602060405180830381600087803b15801561180757600080fd5b505af115801561181b573d6000803e3d6000fd5b505050506040513d602081101561183157600080fd5b8101908080519060200190929190505050600160006101000a81548173ffffffffffffffffffffffffffffffffffffffff021916908373ffffffffffffffffffffffffffffffffffffffff1602179055505b600160009054906101000a900473ffffffffffffffffffffffffffffffffffffffff1673ffffffffffffffffffffffffffffffffffffffff1663abaa5f3e6040518163ffffffff167c010000000000000000000000000000000000000000000000000000000002815260040160206040518083038186803b15801561190757600080fd5b505afa15801561191b573d6000803e3d6000fd5b505050506040513d602081101561193157600080fd5b8101908080519060200190929190505050905090565b6060600082850190508084511015151561196057600080fd5b600086602001905060008460200190505b8688602001018210156119995781890151808288015250602082019150602081019050611971565b85935050505095945050505050565b60008073ffffffffffffffffffffffffffffffffffffffff16600260009054906101000a900473ffffffffffffffffffffffffffffffffffffffff1673ffffffffffffffffffffffffffffffffffffffff161480611a3057506000611a2e600260009054906101000a900473ffffffffffffffffffffffffffffffffffffffff16611d85565b145b15611a4157611a3f6000611d90565b505b600260009054906101000a900473ffffffffffffffffffffffffffffffffffffffff1673ffffffffffffffffffffffffffffffffffffffff166338cc48316040518163ffffffff167c0100000000000000000000000000000000000000000000000000000000028152600401602060405180830381600087803b158015611ac757600080fd5b505af1158015611adb573d6000803e3d6000fd5b505050506040513d6020811015611af157600080fd5b810190808051906020019092919050505073ffffffffffffffffffffffffffffffffffffffff16600160009054906101000a900473ffffffffffffffffffffffffffffffffffffffff1673ffffffffffffffffffffffffffffffffffffffff16141515611c5a57600260009054906101000a900473ffffffffffffffffffffffffffffffffffffffff1673ffffffffffffffffffffffffffffffffffffffff166338cc48316040518163ffffffff167c0100000000000000000000000000000000000000000000000000000000028152600401602060405180830381600087803b158015611bde57600080fd5b505af1158015611bf2573d6000803e3d6000fd5b505050506040513d6020811015611c0857600080fd5b8101908080519060200190929190505050600160006101000a81548173ffffffffffffffffffffffffffffffffffffffff021916908373ffffffffffffffffffffffffffffffffffffffff1602179055505b60606004604051908082528060200260200182016040528015611c9157816020015b6060815260200190600190039081611c7c5790505b509050836000600481101515611ca357fe5b6020020151816000815181101515611cb757fe5b90602001906020020181905250836001600481101515611cd357fe5b6020020151816001815181101515611ce757fe5b90602001906020020181905250836002600481101515611d0357fe5b6020020151816002815181101515611d1757fe5b90602001906020020181905250836003600481101515611d3357fe5b6020020151816003815181101515611d4757fe5b90602001906020020181905250611d5f858285611da1565b9150509392505050565b8060046000848152602001908152602001600020819055505050565b6000813b9050919050565b6000611d9a61237a565b9050919050565b60008073ffffffffffffffffffffffffffffffffffffffff16600260009054906101000a900473ffffffffffffffffffffffffffffffffffffffff1673ffffffffffffffffffffffffffffffffffffffff161480611e2957506000611e27600260009054906101000a900473ffffffffffffffffffffffffffffffffffffffff16611d85565b145b15611e3a57611e386000611d90565b505b600260009054906101000a900473ffffffffffffffffffffffffffffffffffffffff1673ffffffffffffffffffffffffffffffffffffffff166338cc48316040518163ffffffff167c0100000000000000000000000000000000000000000000000000000000028152600401602060405180830381600087803b158015611ec057600080fd5b505af1158015611ed4573d6000803e3d6000fd5b505050506040513d6020811015611eea57600080fd5b810190808051906020019092919050505073ffffffffffffffffffffffffffffffffffffffff16600160009054906101000a900473ffffffffffffffffffffffffffffffffffffffff1673ffffffffffffffffffffffffffffffffffffffff1614151561205357600260009054906101000a900473ffffffffffffffffffffffffffffffffffffffff1673ffffffffffffffffffffffffffffffffffffffff166338cc48316040518163ffffffff167c0100000000000000000000000000000000000000000000000000000000028152600401602060405180830381600087803b158015611fd757600080fd5b505af1158015611feb573d6000803e3d6000fd5b505050506040513d602081101561200157600080fd5b8101908080519060200190929190505050600160006101000a81548173ffffffffffffffffffffffffffffffffffffffff021916908373ffffffffffffffffffffffffffffffffffffffff1602179055505b6000600160009054906101000a900473ffffffffffffffffffffffffffffffffffffffff1673ffffffffffffffffffffffffffffffffffffffff16632ef3accc86856040518363ffffffff167c01000000000000000000000000000000000000000000000000000000000281526004018080602001838152602001828103825284818151815260200191508051906020019080838360005b838110156121065780820151818401526020810190506120eb565b50505050905090810190601f1680156121335780820380516001836020036101000a031916815260200191505b509350505050602060405180830381600087803b15801561215357600080fd5b505af1158015612167573d6000803e3d6000fd5b505050506040513d602081101561217d57600080fd5b81019080805190602001909291905050509050823a02670de0b6b3a7640000018111156121b1576000600102915050612373565b60606121bc856128d1565b9050600160009054906101000a900473ffffffffffffffffffffffffffffffffffffffff1673ffffffffffffffffffffffffffffffffffffffff1663c55c1cb68360008985896040518663ffffffff167c0100000000000000000000000000000000000000000000000000000000028152600401808581526020018060200180602001848152602001838103835286818151815260200191508051906020019080838360005b8381101561227d578082015181840152602081019050612262565b50505050905090810190601f1680156122aa5780820380516001836020036101000a031916815260200191505b50838103825285818151815260200191508051906020019080838360005b838110156122e35780820151818401526020810190506122c8565b50505050905090810190601f1680156123105780820380516001836020036101000a031916815260200191505b5096505050505050506020604051808303818588803b15801561233257600080fd5b505af1158015612346573d6000803e3d6000fd5b50505050506040513d602081101561235d57600080fd5b8101908080519060200190929190505050925050505b9392505050565b60008061239a731d3b2638a7cc9f2cb3d298a3da7a90b67e5506ed611d85565b111561243c57731d3b2638a7cc9f2cb3d298a3da7a90b67e5506ed600260006101000a81548173ffffffffffffffffffffffffffffffffffffffff021916908373ffffffffffffffffffffffffffffffffffffffff1602179055506124336040805190810160405280600b81526020017f6574685f6d61696e6e6574000000000000000000000000000000000000000000815250612955565b600190506128ce565b600061245b73c03a2615d5efaf5f49f60b7bb6583eaec212fdf1611d85565b11156124fd5773c03a2615d5efaf5f49f60b7bb6583eaec212fdf1600260006101000a81548173ffffffffffffffffffffffffffffffffffffffff021916908373ffffffffffffffffffffffffffffffffffffffff1602179055506124f46040805190810160405280600c81526020017f6574685f726f707374656e330000000000000000000000000000000000000000815250612955565b600190506128ce565b600061251c73b7a07bcf2ba2f2703b24c0691b5278999c59ac7e611d85565b11156125be5773b7a07bcf2ba2f2703b24c0691b5278999c59ac7e600260006101000a81548173ffffffffffffffffffffffffffffffffffffffff021916908373ffffffffffffffffffffffffffffffffffffffff1602179055506125b56040805190810160405280600981526020017f6574685f6b6f76616e0000000000000000000000000000000000000000000000815250612955565b600190506128ce565b60006125dd73146500cfd35b22e4a392fe0adc06de1a1368ed48611d85565b111561267f5773146500cfd35b22e4a392fe0adc06de1a1368ed48600260006101000a81548173ffffffffffffffffffffffffffffffffffffffff021916908373ffffffffffffffffffffffffffffffffffffffff1602179055506126766040805190810160405280600b81526020017f6574685f72696e6b656279000000000000000000000000000000000000000000815250612955565b600190506128ce565b600061269e73a2998efd205fb9d4b4963afb70778d6354ad3a41611d85565b11156127405773a2998efd205fb9d4b4963afb70778d6354ad3a41600260006101000a81548173ffffffffffffffffffffffffffffffffffffffff021916908373ffffffffffffffffffffffffffffffffffffffff1602179055506127376040805190810160405280600a81526020017f6574685f676f65726c6900000000000000000000000000000000000000000000815250612955565b600190506128ce565b600061275f736f485c8bf6fc43ea212e93bbf8ce046c7f1cb475611d85565b11156127c357736f485c8bf6fc43ea212e93bbf8ce046c7f1cb475600260006101000a81548173ffffffffffffffffffffffffffffffffffffffff021916908373ffffffffffffffffffffffffffffffffffffffff160217905550600190506128ce565b60006127e27320e12a1f859b3feae5fb2a0a32c18f5a65555bbf611d85565b1115612846577320e12a1f859b3feae5fb2a0a32c18f5a65555bbf600260006101000a81548173ffffffffffffffffffffffffffffffffffffffff021916908373ffffffffffffffffffffffffffffffffffffffff160217905550600190506128ce565b60006128657351efaf4c8b3c9afbd5ab9f4bbc82784ab6ef8faa611d85565b11156128c9577351efaf4c8b3c9afbd5ab9f4bbc82784ab6ef8faa600260006101000a81548173ffffffffffffffffffffffffffffffffffffffff021916908373ffffffffffffffffffffffffffffffffffffffff160217905550600190506128ce565b600090505b90565b60606128db61296f565b6128e3612d44565b6128ef8161040061297b565b6128f8816129cb565b60008090505b835181101561293e57612931848281518110151561291857fe5b90602001906020020151836129d990919063ffffffff16565b80806001019150506128fe565b50612948816129fe565b8060000151915050919050565b806003908051906020019061296b929190612d5e565b5050565b60405180590338823950565b6000819050600060208281151561298e57fe5b061415156129ab576020818115156129a257fe5b06602003810190505b808360200181815250506040518084526000815281810160405250505050565b6129d6816004612a0c565b50565b6129e68260028351612a30565b6129f98183612b8990919063ffffffff16565b505050565b612a09816007612a0c565b50565b612a2c601f60058360ff169060020a021783612c3690919063ffffffff16565b5050565b601781111515612a6157612a5c8160058460ff169060020a0260ff161784612c3690919063ffffffff16565b612b84565b60ff81111515612aa757612a8b601860058460ff169060020a021784612c3690919063ffffffff16565b612aa181600185612c769092919063ffffffff16565b50612b83565b61ffff81111515612aee57612ad2601960058460ff169060020a021784612c3690919063ffffffff16565b612ae881600285612c769092919063ffffffff16565b50612b82565b63ffffffff81111515612b3757612b1b601a60058460ff169060020a021784612c3690919063ffffffff16565b612b3181600485612c769092919063ffffffff16565b50612b81565b67ffffffffffffffff81111515612b8057612b68601b60058460ff169060020a021784612c3690919063ffffffff16565b612b7e81600885612c769092919063ffffffff16565b505b5b5b5b5b505050565b612b91612d44565b82602001518360000151518351011115612bc157612bc0836002612bba86602001518651612cdd565b02612cf9565b5b60008060008451905085518051602081830101945086518101825260208701935050505b602081101515612c0a5781518352602083019250602082019150602081039050612be5565b60006001826020036101000a039050801983511681855116818117865250508694505050505092915050565b81602001516001836000015151011115612c5c57612c5b826002846020015102612cf9565b5b815180516020818301018381536001820183525050505050565b612c7e612d44565b836020015184600001515183011115612cac57612cab846002612ca5876020015186612cdd565b02612cf9565b5b60006001836101000a0390508451805184818301018684198251161781528582018352505050849150509392505050565b600081831115612cef57829050612cf3565b8190505b92915050565b606082600001519050612d0c838361297b565b612d168382612b89565b50505050565b6080604051908101604052806004905b6060815260200190600190039081612d2c5790505090565b604080519081016040528060608152602001600081525090565b828054600181600116156101000203166002900490600052602060002090601f016020900481019282601f10612d9f57805160ff1916838001178555612dcd565b82800160010185558215612dcd579182015b82811115612dcc578251825591602001919060010190612db1565b5b509050612dda9190612dde565b5090565b612e0091905b80821115612dfc576000816000905550600101612de4565b5090565b9056fea165627a7a72305820b707a8d7582994c4287c7c46bbb89e09ea76fdcb6c1701674a92f1fd92f8e4ef0029",
  "source": "// SPDX-License-Identifier: MIT\npragma solidity >=0.4.22 <0.8.0;\n\nimport \"./Ownable.sol\";\nimport \"./provableAPI_0.5.sol\";\n\ncontract CoinFlip is Ownable, usingProvable {\n\n    event LogNewProvableQuery(string description);\n    event generatedRandomNumber(uint256 randomNumber);\n    event oracleId(bytes32 queryId);\n    event wallet(address playerWallet);\n    event betAmount(uint bet);\n\n    uint256 constant NUM_RANDOM_BYTES_REQUESTED = 1;\n\n    struct Player {\n        uint balance;\n        uint latestBet;\n        bool waiting;\n    }\n    \n    mapping(address => Player) public players;\n    mapping(bytes32 => address) public queries;\n\n    // returns this contract's current balance\n    function getContractBalance() public view returns (uint) {\n        return address(this).balance;\n    }\n\n    // returns msg.senders (player) balance\n    function userBalance() public view returns (uint balance) {\n        return players[msg.sender].balance;\n    }\n\n    // withdraw Player winnings\n    function withdrawPlayerBalance() public {\n        require(players[msg.sender].balance > 0);\n        uint amount = players[msg.sender].balance;\n        msg.sender.transfer(amount);\n        Player storage c = players[msg.sender];\n        c.balance -= amount;\n    }\n\n    function withdrawContractBalance() public onlyOwner {\n        require(address(this).balance > 0);\n        uint amount = address(this).balance;\n        msg.sender.transfer(amount);\n    }\n\n    function __callback(bytes32 _queryId, string memory _result) public {\n        require(msg.sender == provable_cbAddress());\n        \n        uint256 randomNumber = uint256(keccak256(abi.encodePacked(_result))) % 2;\n\n        address playerWallet = queries[_queryId];\n        Player storage c = players[playerWallet];\n        c.waiting = false;\n        \n        uint bet = c.latestBet;\n        if (randomNumber == 1) {\n            c.balance += bet;\n        }\n\n\n        emit wallet(playerWallet);\n        emit betAmount(bet);\n        emit generatedRandomNumber(randomNumber);\n    }\n\n    function playerBet(uint amount)\n        payable\n        public\n    {\n        require(msg.value == amount);\n        require(players[msg.sender].waiting == false);\n        \n\n\n        uint256 QUERY_EXECUTION_DELAY = 0; // NOTE: The datasource currently does not support delays > 0!\n        uint256 GAS_FOR_CALLBACK = 200000;\n        \n        bytes32 queryId = provable_newRandomDSQuery(\n            QUERY_EXECUTION_DELAY,\n            NUM_RANDOM_BYTES_REQUESTED,\n            GAS_FOR_CALLBACK\n        );\n        \n        queries[queryId] = msg.sender;\n\n        Player storage c = players[msg.sender];\n            c.latestBet = amount;\n            c.waiting = true;\n\n        emit oracleId(queryId);\n        emit LogNewProvableQuery(\"Provable query was sent, standing by for the answer...\");\n    }\n\n}\n\n\n\n",
  "sourcePath": "/home/rodrigo/Documents/IvanOnTech/coin-flip-dapp/coin-flip-dapp/contracts/CoinFlip.sol",
  "compiler": {
    "name": "solc",
    "version": "0.5.0+commit.1d4f565a.Emscripten.clang"
  },
  "schemaVersion": "3.2.5",
  "updatedAt": "2020-11-01T04:38:27.963Z",
  "networkType": "ethereum",
  "devdoc": {
    "methods": {}
  },
  "userdoc": {
    "methods": {}
  }
}