{
  "contractName": "CoinFlip",
  "abi": [
    {
      "constant": true,
      "inputs": [],
      "name": "owner",
      "outputs": [
        {
          "name": "",
          "type": "address"
        }
      ],
      "payable": false,
      "stateMutability": "view",
      "type": "function"
    },
    {
      "constant": true,
      "inputs": [],
      "name": "latestNumber",
      "outputs": [
        {
          "name": "",
          "type": "uint256"
        }
      ],
      "payable": false,
      "stateMutability": "view",
      "type": "function"
    },
    {
      "constant": true,
      "inputs": [
        {
          "name": "",
          "type": "address"
        }
      ],
      "name": "players",
      "outputs": [
        {
          "name": "balance",
          "type": "uint256"
        },
        {
          "name": "id",
          "type": "address"
        }
      ],
      "payable": false,
      "stateMutability": "view",
      "type": "function"
    },
    {
      "inputs": [],
      "payable": false,
      "stateMutability": "nonpayable",
      "type": "constructor"
    },
    {
      "anonymous": false,
      "inputs": [
        {
          "indexed": false,
          "name": "result",
          "type": "uint256"
        }
      ],
      "name": "Result",
      "type": "event"
    },
    {
      "anonymous": false,
      "inputs": [
        {
          "indexed": false,
          "name": "description",
          "type": "string"
        }
      ],
      "name": "LogNewProvableQuery",
      "type": "event"
    },
    {
      "anonymous": false,
      "inputs": [
        {
          "indexed": false,
          "name": "randomNumber",
          "type": "uint256"
        }
      ],
      "name": "generatedRandomNumber",
      "type": "event"
    },
    {
      "constant": false,
      "inputs": [
        {
          "name": "amount",
          "type": "uint256"
        }
      ],
      "name": "playerBet",
      "outputs": [],
      "payable": true,
      "stateMutability": "payable",
      "type": "function"
    },
    {
      "constant": true,
      "inputs": [],
      "name": "random",
      "outputs": [
        {
          "name": "",
          "type": "uint256"
        }
      ],
      "payable": false,
      "stateMutability": "view",
      "type": "function"
    },
    {
      "constant": true,
      "inputs": [],
      "name": "getContractBalance",
      "outputs": [
        {
          "name": "",
          "type": "uint256"
        }
      ],
      "payable": false,
      "stateMutability": "view",
      "type": "function"
    },
    {
      "constant": true,
      "inputs": [],
      "name": "userBalance",
      "outputs": [
        {
          "name": "balance",
          "type": "uint256"
        }
      ],
      "payable": false,
      "stateMutability": "view",
      "type": "function"
    },
    {
      "constant": false,
      "inputs": [],
      "name": "withdrawPlayerBalance",
      "outputs": [],
      "payable": false,
      "stateMutability": "nonpayable",
      "type": "function"
    },
    {
      "constant": false,
      "inputs": [],
      "name": "withdrawContractBalance",
      "outputs": [],
      "payable": false,
      "stateMutability": "nonpayable",
      "type": "function"
    },
    {
      "constant": false,
      "inputs": [
        {
          "name": "_myid",
          "type": "bytes32"
        },
        {
          "name": "_result",
          "type": "string"
        }
      ],
      "name": "__callback",
      "outputs": [],
      "payable": false,
      "stateMutability": "nonpayable",
      "type": "function"
    },
    {
      "constant": false,
      "inputs": [
        {
          "name": "_queryId",
          "type": "bytes32"
        },
        {
          "name": "_result",
          "type": "string"
        },
        {
          "name": "_proof",
          "type": "bytes"
        }
      ],
      "name": "__callback",
      "outputs": [],
      "payable": false,
      "stateMutability": "nonpayable",
      "type": "function"
    },
    {
      "constant": false,
      "inputs": [],
      "name": "update",
      "outputs": [],
      "payable": true,
      "stateMutability": "payable",
      "type": "function"
    }
  ],
  "bytecode": "0x60806040523480156200001157600080fd5b50336000806101000a81548173ffffffffffffffffffffffffffffffffffffffff021916908373ffffffffffffffffffffffffffffffffffffffff1602179055506200006b62000071640100000000026401000000009004565b62002332565b6000809050600062030d4090506200009b826001836200012e640100000000026401000000009004565b507fc4dc360d0a9c0677a3379ae0a3d81e887f761e65fdf3d7e00859d1bcd3c473896040518080602001828103825260368152602001807f50726f7661626c65207175657279207761732073656e742c207374616e64696e81526020017f6720627920666f722074686520616e737765722e2e2e0000000000000000000081525060400191505060405180910390a15050565b6000808311801562000141575060208311155b15156200014d57600080fd5b600a84029350606060016040519080825280601f01601f1916602001820160405280156200018a5781602001600182028038833980820191505090505b509050837f010000000000000000000000000000000000000000000000000000000000000002816000815181101515620001c057fe5b9060200101907effffffffffffffffffffffffffffffffffffffffffffffffffffffffffffff1916908160001a905350606060206040519080825280601f01601f191660200182016040528015620002275781602001600182028038833980820191505090505b509050606060206040519080825280601f01601f191660200182016040528015620002615781602001600182028038833980820191505090505b50905060006200027f62000758640100000000026401000000009004565b905060208352424118600143034018602084015260208252806020830152606060206040519080825280601f01601f191660200182016040528015620002d45781602001600182028038833980820191505090505b509050886020820152606060086040519080825280601f01601f191660200182016040528015620003145781602001600182028038833980820191505090505b50905062000338826018600884600062000afc640100000000026401000000009004565b506200034362002240565b6080604051908101604052808781526020018881526020018681526020018481525090506000620003ba6040805190810160405280600681526020017f72616e646f6d0000000000000000000000000000000000000000000000000000815250838c62000b60640100000000026401000000009004565b9050606060086040519080825280601f01601f191660200182016040528015620003f35781602001600182028038833980820191505090505b50905060208401517f0100000000000000000000000000000000000000000000000000000000000000810460278301537e01000000000000000000000000000000000000000000000000000000000000810460268301537d010000000000000000000000000000000000000000000000000000000000810460258301537c0100000000000000000000000000000000000000000000000000000000810460248301537b01000000000000000000000000000000000000000000000000000000810460238301537a0100000000000000000000000000000000000000000000000000008104602283015379010000000000000000000000000000000000000000000000000081046021830153780100000000000000000000000000000000000000000000000081046020830153506200074582828560016004811015156200053657fe5b602002015160028760006004811015156200054d57fe5b60200201516040518082805190602001908083835b60208310151562000589578051825260208201915060208101905060208303925062000562565b6001836020036101000a038019825116818451168082178552505050505050905001915050602060405180830381855afa158015620005cc573d6000803e3d6000fd5b5050506040513d6020811015620005e257600080fd5b81019080805190602001909291905050508760026004811015156200060357fe5b60200201516040516020018085805190602001908083835b6020831015156200064257805182526020820191506020810190506020830392506200061b565b6001836020036101000a03801982511681845116808217855250505050505090500184805190602001908083835b60208310151562000697578051825260208201915060208101905060208303925062000670565b6001836020036101000a03801982511681845116808217855250505050505090500183815260200182805190602001908083835b602083101515620006f25780518252602082019150602081019050602083039250620006cb565b6001836020036101000a0380198251168184511680821785525050505050509050019450505050506040516020818303038152906040528051906020012062000f67640100000000026401000000009004565b8199505050505050505050509392505050565b60008073ffffffffffffffffffffffffffffffffffffffff16600260009054906101000a900473ffffffffffffffffffffffffffffffffffffffff1673ffffffffffffffffffffffffffffffffffffffff161480620007f257506000620007f0600260009054906101000a900473ffffffffffffffffffffffffffffffffffffffff1662000f83640100000000026401000000009004565b145b15620008155762000813600062000f8e640100000000026401000000009004565b505b600260009054906101000a900473ffffffffffffffffffffffffffffffffffffffff1673ffffffffffffffffffffffffffffffffffffffff166338cc48316040518163ffffffff167c0100000000000000000000000000000000000000000000000000000000028152600401602060405180830381600087803b1580156200089c57600080fd5b505af1158015620008b1573d6000803e3d6000fd5b505050506040513d6020811015620008c857600080fd5b810190808051906020019092919050505073ffffffffffffffffffffffffffffffffffffffff16600160009054906101000a900473ffffffffffffffffffffffffffffffffffffffff1673ffffffffffffffffffffffffffffffffffffffff1614151562000a3557600260009054906101000a900473ffffffffffffffffffffffffffffffffffffffff1673ffffffffffffffffffffffffffffffffffffffff166338cc48316040518163ffffffff167c0100000000000000000000000000000000000000000000000000000000028152600401602060405180830381600087803b158015620009b757600080fd5b505af1158015620009cc573d6000803e3d6000fd5b505050506040513d6020811015620009e357600080fd5b8101908080519060200190929190505050600160006101000a81548173ffffffffffffffffffffffffffffffffffffffff021916908373ffffffffffffffffffffffffffffffffffffffff1602179055505b600160009054906101000a900473ffffffffffffffffffffffffffffffffffffffff1673ffffffffffffffffffffffffffffffffffffffff1663abaa5f3e6040518163ffffffff167c010000000000000000000000000000000000000000000000000000000002815260040160206040518083038186803b15801562000aba57600080fd5b505afa15801562000acf573d6000803e3d6000fd5b505050506040513d602081101562000ae657600080fd5b8101908080519060200190929190505050905090565b6060600082850190508084511015151562000b1657600080fd5b600086602001905060008460200190505b86886020010182101562000b51578189015180828801525060208201915060208101905062000b27565b85935050505095945050505050565b60008073ffffffffffffffffffffffffffffffffffffffff16600260009054906101000a900473ffffffffffffffffffffffffffffffffffffffff1673ffffffffffffffffffffffffffffffffffffffff16148062000bfa5750600062000bf8600260009054906101000a900473ffffffffffffffffffffffffffffffffffffffff1662000f83640100000000026401000000009004565b145b1562000c1d5762000c1b600062000f8e640100000000026401000000009004565b505b600260009054906101000a900473ffffffffffffffffffffffffffffffffffffffff1673ffffffffffffffffffffffffffffffffffffffff166338cc48316040518163ffffffff167c0100000000000000000000000000000000000000000000000000000000028152600401602060405180830381600087803b15801562000ca457600080fd5b505af115801562000cb9573d6000803e3d6000fd5b505050506040513d602081101562000cd057600080fd5b810190808051906020019092919050505073ffffffffffffffffffffffffffffffffffffffff16600160009054906101000a900473ffffffffffffffffffffffffffffffffffffffff1673ffffffffffffffffffffffffffffffffffffffff1614151562000e3d57600260009054906101000a900473ffffffffffffffffffffffffffffffffffffffff1673ffffffffffffffffffffffffffffffffffffffff166338cc48316040518163ffffffff167c0100000000000000000000000000000000000000000000000000000000028152600401602060405180830381600087803b15801562000dbf57600080fd5b505af115801562000dd4573d6000803e3d6000fd5b505050506040513d602081101562000deb57600080fd5b8101908080519060200190929190505050600160006101000a81548173ffffffffffffffffffffffffffffffffffffffff021916908373ffffffffffffffffffffffffffffffffffffffff1602179055505b6060600460405190808252806020026020018201604052801562000e7657816020015b606081526020019060019003908162000e605790505b50905083600060048110151562000e8957fe5b602002015181600081518110151562000e9e57fe5b9060200190602002018190525083600160048110151562000ebb57fe5b602002015181600181518110151562000ed057fe5b9060200190602002018190525083600260048110151562000eed57fe5b602002015181600281518110151562000f0257fe5b9060200190602002018190525083600360048110151562000f1f57fe5b602002015181600381518110151562000f3457fe5b9060200190602002018190525062000f5d85828562000fb0640100000000026401000000009004565b9150509392505050565b8060046000848152602001908152602001600020819055505050565b6000813b9050919050565b600062000fa9620015d6640100000000026401000000009004565b9050919050565b60008073ffffffffffffffffffffffffffffffffffffffff16600260009054906101000a900473ffffffffffffffffffffffffffffffffffffffff1673ffffffffffffffffffffffffffffffffffffffff1614806200104a5750600062001048600260009054906101000a900473ffffffffffffffffffffffffffffffffffffffff1662000f83640100000000026401000000009004565b145b156200106d576200106b600062000f8e640100000000026401000000009004565b505b600260009054906101000a900473ffffffffffffffffffffffffffffffffffffffff1673ffffffffffffffffffffffffffffffffffffffff166338cc48316040518163ffffffff167c0100000000000000000000000000000000000000000000000000000000028152600401602060405180830381600087803b158015620010f457600080fd5b505af115801562001109573d6000803e3d6000fd5b505050506040513d60208110156200112057600080fd5b810190808051906020019092919050505073ffffffffffffffffffffffffffffffffffffffff16600160009054906101000a900473ffffffffffffffffffffffffffffffffffffffff1673ffffffffffffffffffffffffffffffffffffffff161415156200128d57600260009054906101000a900473ffffffffffffffffffffffffffffffffffffffff1673ffffffffffffffffffffffffffffffffffffffff166338cc48316040518163ffffffff167c0100000000000000000000000000000000000000000000000000000000028152600401602060405180830381600087803b1580156200120f57600080fd5b505af115801562001224573d6000803e3d6000fd5b505050506040513d60208110156200123b57600080fd5b8101908080519060200190929190505050600160006101000a81548173ffffffffffffffffffffffffffffffffffffffff021916908373ffffffffffffffffffffffffffffffffffffffff1602179055505b6000600160009054906101000a900473ffffffffffffffffffffffffffffffffffffffff1673ffffffffffffffffffffffffffffffffffffffff16632ef3accc86856040518363ffffffff167c01000000000000000000000000000000000000000000000000000000000281526004018080602001838152602001828103825284818151815260200191508051906020019080838360005b838110156200134257808201518184015260208101905062001325565b50505050905090810190601f168015620013705780820380516001836020036101000a031916815260200191505b509350505050602060405180830381600087803b1580156200139157600080fd5b505af1158015620013a6573d6000803e3d6000fd5b505050506040513d6020811015620013bd57600080fd5b81019080805190602001909291905050509050823a02670de0b6b3a764000001811115620013f3576000600102915050620015cf565b60606200140f8562001c1a640100000000026401000000009004565b9050600160009054906101000a900473ffffffffffffffffffffffffffffffffffffffff1673ffffffffffffffffffffffffffffffffffffffff1663c55c1cb68360008985896040518663ffffffff167c0100000000000000000000000000000000000000000000000000000000028152600401808581526020018060200180602001848152602001838103835286818151815260200191508051906020019080838360005b83811015620014d2578082015181840152602081019050620014b5565b50505050905090810190601f168015620015005780820380516001836020036101000a031916815260200191505b50838103825285818151815260200191508051906020019080838360005b838110156200153b5780820151818401526020810190506200151e565b50505050905090810190601f168015620015695780820380516001836020036101000a031916815260200191505b5096505050505050506020604051808303818588803b1580156200158c57600080fd5b505af1158015620015a1573d6000803e3d6000fd5b50505050506040513d6020811015620015b957600080fd5b8101908080519060200190929190505050925050505b9392505050565b60008062001607731d3b2638a7cc9f2cb3d298a3da7a90b67e5506ed62000f83640100000000026401000000009004565b1115620016bc57731d3b2638a7cc9f2cb3d298a3da7a90b67e5506ed600260006101000a81548173ffffffffffffffffffffffffffffffffffffffff021916908373ffffffffffffffffffffffffffffffffffffffff160217905550620016b26040805190810160405280600b81526020017f6574685f6d61696e6e657400000000000000000000000000000000000000000081525062001d06640100000000026401000000009004565b6001905062001c17565b6000620016ec73c03a2615d5efaf5f49f60b7bb6583eaec212fdf162000f83640100000000026401000000009004565b1115620017a15773c03a2615d5efaf5f49f60b7bb6583eaec212fdf1600260006101000a81548173ffffffffffffffffffffffffffffffffffffffff021916908373ffffffffffffffffffffffffffffffffffffffff160217905550620017976040805190810160405280600c81526020017f6574685f726f707374656e33000000000000000000000000000000000000000081525062001d06640100000000026401000000009004565b6001905062001c17565b6000620017d173b7a07bcf2ba2f2703b24c0691b5278999c59ac7e62000f83640100000000026401000000009004565b1115620018865773b7a07bcf2ba2f2703b24c0691b5278999c59ac7e600260006101000a81548173ffffffffffffffffffffffffffffffffffffffff021916908373ffffffffffffffffffffffffffffffffffffffff1602179055506200187c6040805190810160405280600981526020017f6574685f6b6f76616e000000000000000000000000000000000000000000000081525062001d06640100000000026401000000009004565b6001905062001c17565b6000620018b673146500cfd35b22e4a392fe0adc06de1a1368ed4862000f83640100000000026401000000009004565b11156200196b5773146500cfd35b22e4a392fe0adc06de1a1368ed48600260006101000a81548173ffffffffffffffffffffffffffffffffffffffff021916908373ffffffffffffffffffffffffffffffffffffffff160217905550620019616040805190810160405280600b81526020017f6574685f72696e6b65627900000000000000000000000000000000000000000081525062001d06640100000000026401000000009004565b6001905062001c17565b60006200199b73a2998efd205fb9d4b4963afb70778d6354ad3a4162000f83640100000000026401000000009004565b111562001a505773a2998efd205fb9d4b4963afb70778d6354ad3a41600260006101000a81548173ffffffffffffffffffffffffffffffffffffffff021916908373ffffffffffffffffffffffffffffffffffffffff16021790555062001a466040805190810160405280600a81526020017f6574685f676f65726c690000000000000000000000000000000000000000000081525062001d06640100000000026401000000009004565b6001905062001c17565b600062001a80736f485c8bf6fc43ea212e93bbf8ce046c7f1cb47562000f83640100000000026401000000009004565b111562001ae657736f485c8bf6fc43ea212e93bbf8ce046c7f1cb475600260006101000a81548173ffffffffffffffffffffffffffffffffffffffff021916908373ffffffffffffffffffffffffffffffffffffffff1602179055506001905062001c17565b600062001b167320e12a1f859b3feae5fb2a0a32c18f5a65555bbf62000f83640100000000026401000000009004565b111562001b7c577320e12a1f859b3feae5fb2a0a32c18f5a65555bbf600260006101000a81548173ffffffffffffffffffffffffffffffffffffffff021916908373ffffffffffffffffffffffffffffffffffffffff1602179055506001905062001c17565b600062001bac7351efaf4c8b3c9afbd5ab9f4bbc82784ab6ef8faa62000f83640100000000026401000000009004565b111562001c12577351efaf4c8b3c9afbd5ab9f4bbc82784ab6ef8faa600260006101000a81548173ffffffffffffffffffffffffffffffffffffffff021916908373ffffffffffffffffffffffffffffffffffffffff1602179055506001905062001c17565b600090505b90565b606062001c3562001d22640100000000026401000000009004565b62001c3f62002269565b62001c618161040062001d2e64010000000002620027f0176401000000009004565b62001c808162001d816401000000000262002840176401000000009004565b60008090505b835181101562001cd95762001ccb848281518110151562001ca357fe5b906020019060200201518362001da0640100000000026200284e179091906401000000009004565b808060010191505062001c86565b5062001cf98162001de66401000000000262002873176401000000009004565b8060000151915050919050565b806003908051906020019062001d1e92919062002283565b5050565b60405180590338823950565b6000819050600060208281151562001d4257fe5b0614151562001d615760208181151562001d5857fe5b06602003810190505b808360200181815250506040518084526000815281810160405250505050565b62001d9d81600462001e05640100000000026401000000009004565b50565b62001dbe826002835162001e39640100000000026401000000009004565b62001de181836200202b64010000000002620029fe179091906401000000009004565b505050565b62001e0281600762001e05640100000000026401000000009004565b50565b62001e35601f60058360ff169060020a021783620020ff6401000000000262002aab179091906401000000009004565b5050565b60178111151562001e7c5762001e768160058460ff169060020a0260ff161784620020ff6401000000000262002aab179091906401000000009004565b62002026565b60ff8111151562001ee45762001eb7601860058460ff169060020a021784620020ff6401000000000262002aab179091906401000000009004565b62001edd81600185620021516401000000000262002aeb17909291906401000000009004565b5062002025565b61ffff8111151562001f4d5762001f20601960058460ff169060020a021784620020ff6401000000000262002aab179091906401000000009004565b62001f4681600285620021516401000000000262002aeb17909291906401000000009004565b5062002024565b63ffffffff8111151562001fb85762001f8b601a60058460ff169060020a021784620020ff6401000000000262002aab179091906401000000009004565b62001fb181600485620021516401000000000262002aeb17909291906401000000009004565b5062002023565b67ffffffffffffffff81111515620020225762001ffa601b60058460ff169060020a021784620020ff6401000000000262002aab179091906401000000009004565b6200202081600885620021516401000000000262002aeb17909291906401000000009004565b505b5b5b5b5b505050565b6200203562002269565b826020015183600001515183510111156200208857620020878360026200207186602001518651620021dd640100000000026401000000009004565b02620021fb640100000000026401000000009004565b5b60008060008451905085518051602081830101945086518101825260208701935050505b602081101515620020d35781518352602083019250602082019150602081039050620020ac565b60006001826020036101000a039050801983511681855116818117865250508694505050505092915050565b81602001516001836000015151011115620021375762002136826002846020015102620021fb640100000000026401000000009004565b5b815180516020818301018381536001820183525050505050565b6200215b62002269565b836020015184600001515183011115620021ac57620021ab84600262002195876020015186620021dd640100000000026401000000009004565b02620021fb640100000000026401000000009004565b5b60006001836101000a0390508451805184818301018684198251161781528582018352505050849150509392505050565b600081831115620021f157829050620021f5565b8190505b92915050565b6060826000015190506200221f838362001d2e640100000000026401000000009004565b6200223a83826200202b640100000000026401000000009004565b50505050565b6080604051908101604052806004905b6060815260200190600190039081620022505790505090565b604080519081016040528060608152602001600081525090565b828054600181600116156101000203166002900490600052602060002090601f016020900481019282601f10620022c657805160ff1916838001178555620022f7565b82800160010185558215620022f7579182015b82811115620022f6578251825591602001919060010190620022d9565b5b5090506200230691906200230a565b5090565b6200232f91905b808211156200232b57600081600090555060010162002311565b5090565b90565b612ca480620023426000396000f3fe6080604052600436106100ba576000357c0100000000000000000000000000000000000000000000000000000000900463ffffffff1680630dea35bf146100bf57806327dc297e146100ed57806338bbfa50146101bf5780635ec01e4d146103285780636f9fb98a146103535780638da5cb5b1461037e578063a2e62045146103d5578063bf152765146103df578063bfab3db91461040a578063d325101a14610421578063dc34b0aa14610438578063e2eb41ff14610463575b600080fd5b6100eb600480360360208110156100d557600080fd5b81019080803590602001909291905050506104fb565b005b3480156100f957600080fd5b506101bd6004803603604081101561011057600080fd5b81019080803590602001909291908035906020019064010000000081111561013757600080fd5b82018360208201111561014957600080fd5b8035906020019184600183028401116401000000008311171561016b57600080fd5b91908080601f016020809104026020016040519081016040528093929190818152602001838380828437600081840152601f19601f8201169050808301925050505050505091929192905050506105fb565b005b3480156101cb57600080fd5b50610326600480360360608110156101e257600080fd5b81019080803590602001909291908035906020019064010000000081111561020957600080fd5b82018360208201111561021b57600080fd5b8035906020019184600183028401116401000000008311171561023d57600080fd5b91908080601f016020809104026020016040519081016040528093929190818152602001838380828437600081840152601f19601f820116905080830192505050505050509192919290803590602001906401000000008111156102a057600080fd5b8201836020820111156102b257600080fd5b803590602001918460018302840111640100000000831117156102d457600080fd5b91908080601f016020809104026020016040519081016040528093929190818152602001838380828437600081840152601f19601f82011690508083019250505050505050919291929050505061063e565b005b34801561033457600080fd5b5061033d61074b565b6040518082815260200191505060405180910390f35b34801561035f57600080fd5b5061036861075f565b6040518082815260200191505060405180910390f35b34801561038a57600080fd5b5061039361077e565b604051808273ffffffffffffffffffffffffffffffffffffffff1673ffffffffffffffffffffffffffffffffffffffff16815260200191505060405180910390f35b6103dd6107a3565b005b3480156103eb57600080fd5b506103f461084f565b6040518082815260200191505060405180910390f35b34801561041657600080fd5b5061041f610899565b005b34801561042d57600080fd5b50610436610980565b005b34801561044457600080fd5b5061044d610ab8565b6040518082815260200191505060405180910390f35b34801561046f57600080fd5b506104b26004803603602081101561048657600080fd5b81019080803573ffffffffffffffffffffffffffffffffffffffff169060200190929190505050610abe565b604051808381526020018273ffffffffffffffffffffffffffffffffffffffff1673ffffffffffffffffffffffffffffffffffffffff1681526020019250505060405180910390f35b803414151561050957600080fd5b6105116107a3565b6000600760003373ffffffffffffffffffffffffffffffffffffffff1673ffffffffffffffffffffffffffffffffffffffff1681526020019081526020016000209050338160010160006101000a81548173ffffffffffffffffffffffffffffffffffffffff021916908373ffffffffffffffffffffffffffffffffffffffff16021790555060006105a161074b565b905060018114156105bf578282600001600082825401925050819055505b7fa9bb0fa194e939eadb11be8d62dd4a16e0f5e89f37fb73fa7f0f8446f1abba61816040518082815260200191505060405180910390a1505050565b61063a828260006040519080825280601f01601f1916602001820160405280156106345781602001600182028038833980820191505090505b5061063e565b5050565b610646610b02565b73ffffffffffffffffffffffffffffffffffffffff163373ffffffffffffffffffffffffffffffffffffffff1614151561067f57600080fd5b60006064836040516020018082805190602001908083835b6020831015156106bc5780518252602082019150602081019050602083039250610697565b6001836020036101000a038019825116818451168082178552505050505050905001915050604051602081830303815290604052805190602001206001900481151561070457fe5b069050806006819055507fc13d60fe9dffdb6908d2d446cd18134373a51db0738ee04f296eeb9128121cbc816040518082815260200191505060405180910390a150505050565b600060024281151561075957fe5b06905090565b60003073ffffffffffffffffffffffffffffffffffffffff1631905090565b6000809054906101000a900473ffffffffffffffffffffffffffffffffffffffff1681565b6000809050600062030d4090506107bc82600183610e78565b507fc4dc360d0a9c0677a3379ae0a3d81e887f761e65fdf3d7e00859d1bcd3c473896040518080602001828103825260368152602001807f50726f7661626c65207175657279207761732073656e742c207374616e64696e81526020017f6720627920666f722074686520616e737765722e2e2e0000000000000000000081525060400191505060405180910390a15050565b6000600760003373ffffffffffffffffffffffffffffffffffffffff1673ffffffffffffffffffffffffffffffffffffffff16815260200190815260200160002060000154905090565b6000809054906101000a900473ffffffffffffffffffffffffffffffffffffffff1673ffffffffffffffffffffffffffffffffffffffff163373ffffffffffffffffffffffffffffffffffffffff161415156108f457600080fd5b60003073ffffffffffffffffffffffffffffffffffffffff163111151561091a57600080fd5b60003073ffffffffffffffffffffffffffffffffffffffff163190503373ffffffffffffffffffffffffffffffffffffffff166108fc829081150290604051600060405180830381858888f1935050505015801561097c573d6000803e3d6000fd5b5050565b6000600760003373ffffffffffffffffffffffffffffffffffffffff1673ffffffffffffffffffffffffffffffffffffffff168152602001908152602001600020600001541115156109d157600080fd5b6000600760003373ffffffffffffffffffffffffffffffffffffffff1673ffffffffffffffffffffffffffffffffffffffff1681526020019081526020016000206000015490503373ffffffffffffffffffffffffffffffffffffffff166108fc829081150290604051600060405180830381858888f19350505050158015610a5e573d6000803e3d6000fd5b506000600760003373ffffffffffffffffffffffffffffffffffffffff1673ffffffffffffffffffffffffffffffffffffffff16815260200190815260200160002090508181600001600082825403925050819055505050565b60065481565b60076020528060005260406000206000915090508060000154908060010160009054906101000a900473ffffffffffffffffffffffffffffffffffffffff16905082565b60008073ffffffffffffffffffffffffffffffffffffffff16600260009054906101000a900473ffffffffffffffffffffffffffffffffffffffff1673ffffffffffffffffffffffffffffffffffffffff161480610b8a57506000610b88600260009054906101000a900473ffffffffffffffffffffffffffffffffffffffff16611446565b145b15610b9b57610b996000611451565b505b600260009054906101000a900473ffffffffffffffffffffffffffffffffffffffff1673ffffffffffffffffffffffffffffffffffffffff166338cc48316040518163ffffffff167c0100000000000000000000000000000000000000000000000000000000028152600401602060405180830381600087803b158015610c2157600080fd5b505af1158015610c35573d6000803e3d6000fd5b505050506040513d6020811015610c4b57600080fd5b810190808051906020019092919050505073ffffffffffffffffffffffffffffffffffffffff16600160009054906101000a900473ffffffffffffffffffffffffffffffffffffffff1673ffffffffffffffffffffffffffffffffffffffff16141515610db457600260009054906101000a900473ffffffffffffffffffffffffffffffffffffffff1673ffffffffffffffffffffffffffffffffffffffff166338cc48316040518163ffffffff167c0100000000000000000000000000000000000000000000000000000000028152600401602060405180830381600087803b158015610d3857600080fd5b505af1158015610d4c573d6000803e3d6000fd5b505050506040513d6020811015610d6257600080fd5b8101908080519060200190929190505050600160006101000a81548173ffffffffffffffffffffffffffffffffffffffff021916908373ffffffffffffffffffffffffffffffffffffffff1602179055505b600160009054906101000a900473ffffffffffffffffffffffffffffffffffffffff1673ffffffffffffffffffffffffffffffffffffffff1663c281d19e6040518163ffffffff167c010000000000000000000000000000000000000000000000000000000002815260040160206040518083038186803b158015610e3857600080fd5b505afa158015610e4c573d6000803e3d6000fd5b505050506040513d6020811015610e6257600080fd5b8101908080519060200190929190505050905090565b60008083118015610e8a575060208311155b1515610e9557600080fd5b600a84029350606060016040519080825280601f01601f191660200182016040528015610ed15781602001600182028038833980820191505090505b509050837f010000000000000000000000000000000000000000000000000000000000000002816000815181101515610f0657fe5b9060200101907effffffffffffffffffffffffffffffffffffffffffffffffffffffffffffff1916908160001a905350606060206040519080825280601f01601f191660200182016040528015610f6c5781602001600182028038833980820191505090505b509050606060206040519080825280601f01601f191660200182016040528015610fa55781602001600182028038833980820191505090505b5090506000610fb2611462565b905060208352424118600143034018602084015260208252806020830152606060206040519080825280601f01601f1916602001820160405280156110065781602001600182028038833980820191505090505b509050886020820152606060086040519080825280601f01601f1916602001820160405280156110455781602001600182028038833980820191505090505b50905061105882601860088460006117d8565b50611061612b91565b60806040519081016040528087815260200188815260200186815260200184815250905060006110c76040805190810160405280600681526020017f72616e646f6d0000000000000000000000000000000000000000000000000000815250838c611839565b9050606060086040519080825280601f01601f1916602001820160405280156110ff5781602001600182028038833980820191505090505b50905060208401517f0100000000000000000000000000000000000000000000000000000000000000810460278301537e01000000000000000000000000000000000000000000000000000000000000810460268301537d010000000000000000000000000000000000000000000000000000000000810460258301537c0100000000000000000000000000000000000000000000000000000000810460248301537b01000000000000000000000000000000000000000000000000000000810460238301537a010000000000000000000000000000000000000000000000000000810460228301537901000000000000000000000000000000000000000000000000008104602183015378010000000000000000000000000000000000000000000000008104602083015350611433828285600160048110151561124057fe5b6020020151600287600060048110151561125657fe5b60200201516040518082805190602001908083835b602083101515611290578051825260208201915060208101905060208303925061126b565b6001836020036101000a038019825116818451168082178552505050505050905001915050602060405180830381855afa1580156112d2573d6000803e3d6000fd5b5050506040513d60208110156112e757600080fd5b810190808051906020019092919050505087600260048110151561130757fe5b60200201516040516020018085805190602001908083835b602083101515611344578051825260208201915060208101905060208303925061131f565b6001836020036101000a03801982511681845116808217855250505050505090500184805190602001908083835b6020831015156113975780518252602082019150602081019050602083039250611372565b6001836020036101000a03801982511681845116808217855250505050505090500183815260200182805190602001908083835b6020831015156113f057805182526020820191506020810190506020830392506113cb565b6001836020036101000a03801982511681845116808217855250505050505090500194505050505060405160208183030381529060405280519060200120611bfa565b8199505050505050505050509392505050565b6000813b9050919050565b600061145b611c16565b9050919050565b60008073ffffffffffffffffffffffffffffffffffffffff16600260009054906101000a900473ffffffffffffffffffffffffffffffffffffffff1673ffffffffffffffffffffffffffffffffffffffff1614806114ea575060006114e8600260009054906101000a900473ffffffffffffffffffffffffffffffffffffffff16611446565b145b156114fb576114f96000611451565b505b600260009054906101000a900473ffffffffffffffffffffffffffffffffffffffff1673ffffffffffffffffffffffffffffffffffffffff166338cc48316040518163ffffffff167c0100000000000000000000000000000000000000000000000000000000028152600401602060405180830381600087803b15801561158157600080fd5b505af1158015611595573d6000803e3d6000fd5b505050506040513d60208110156115ab57600080fd5b810190808051906020019092919050505073ffffffffffffffffffffffffffffffffffffffff16600160009054906101000a900473ffffffffffffffffffffffffffffffffffffffff1673ffffffffffffffffffffffffffffffffffffffff1614151561171457600260009054906101000a900473ffffffffffffffffffffffffffffffffffffffff1673ffffffffffffffffffffffffffffffffffffffff166338cc48316040518163ffffffff167c0100000000000000000000000000000000000000000000000000000000028152600401602060405180830381600087803b15801561169857600080fd5b505af11580156116ac573d6000803e3d6000fd5b505050506040513d60208110156116c257600080fd5b8101908080519060200190929190505050600160006101000a81548173ffffffffffffffffffffffffffffffffffffffff021916908373ffffffffffffffffffffffffffffffffffffffff1602179055505b600160009054906101000a900473ffffffffffffffffffffffffffffffffffffffff1673ffffffffffffffffffffffffffffffffffffffff1663abaa5f3e6040518163ffffffff167c010000000000000000000000000000000000000000000000000000000002815260040160206040518083038186803b15801561179857600080fd5b505afa1580156117ac573d6000803e3d6000fd5b505050506040513d60208110156117c257600080fd5b8101908080519060200190929190505050905090565b606060008285019050808451101515156117f157600080fd5b600086602001905060008460200190505b86886020010182101561182a5781890151808288015250602082019150602081019050611802565b85935050505095945050505050565b60008073ffffffffffffffffffffffffffffffffffffffff16600260009054906101000a900473ffffffffffffffffffffffffffffffffffffffff1673ffffffffffffffffffffffffffffffffffffffff1614806118c1575060006118bf600260009054906101000a900473ffffffffffffffffffffffffffffffffffffffff16611446565b145b156118d2576118d06000611451565b505b600260009054906101000a900473ffffffffffffffffffffffffffffffffffffffff1673ffffffffffffffffffffffffffffffffffffffff166338cc48316040518163ffffffff167c0100000000000000000000000000000000000000000000000000000000028152600401602060405180830381600087803b15801561195857600080fd5b505af115801561196c573d6000803e3d6000fd5b505050506040513d602081101561198257600080fd5b810190808051906020019092919050505073ffffffffffffffffffffffffffffffffffffffff16600160009054906101000a900473ffffffffffffffffffffffffffffffffffffffff1673ffffffffffffffffffffffffffffffffffffffff16141515611aeb57600260009054906101000a900473ffffffffffffffffffffffffffffffffffffffff1673ffffffffffffffffffffffffffffffffffffffff166338cc48316040518163ffffffff167c0100000000000000000000000000000000000000000000000000000000028152600401602060405180830381600087803b158015611a6f57600080fd5b505af1158015611a83573d6000803e3d6000fd5b505050506040513d6020811015611a9957600080fd5b8101908080519060200190929190505050600160006101000a81548173ffffffffffffffffffffffffffffffffffffffff021916908373ffffffffffffffffffffffffffffffffffffffff1602179055505b60606004604051908082528060200260200182016040528015611b2257816020015b6060815260200190600190039081611b0d5790505b509050836000600481101515611b3457fe5b6020020151816000815181101515611b4857fe5b90602001906020020181905250836001600481101515611b6457fe5b6020020151816001815181101515611b7857fe5b90602001906020020181905250836002600481101515611b9457fe5b6020020151816002815181101515611ba857fe5b90602001906020020181905250836003600481101515611bc457fe5b6020020151816003815181101515611bd857fe5b90602001906020020181905250611bf085828561216d565b9150509392505050565b8060046000848152602001908152602001600020819055505050565b600080611c36731d3b2638a7cc9f2cb3d298a3da7a90b67e5506ed611446565b1115611cd857731d3b2638a7cc9f2cb3d298a3da7a90b67e5506ed600260006101000a81548173ffffffffffffffffffffffffffffffffffffffff021916908373ffffffffffffffffffffffffffffffffffffffff160217905550611ccf6040805190810160405280600b81526020017f6574685f6d61696e6e6574000000000000000000000000000000000000000000815250612746565b6001905061216a565b6000611cf773c03a2615d5efaf5f49f60b7bb6583eaec212fdf1611446565b1115611d995773c03a2615d5efaf5f49f60b7bb6583eaec212fdf1600260006101000a81548173ffffffffffffffffffffffffffffffffffffffff021916908373ffffffffffffffffffffffffffffffffffffffff160217905550611d906040805190810160405280600c81526020017f6574685f726f707374656e330000000000000000000000000000000000000000815250612746565b6001905061216a565b6000611db873b7a07bcf2ba2f2703b24c0691b5278999c59ac7e611446565b1115611e5a5773b7a07bcf2ba2f2703b24c0691b5278999c59ac7e600260006101000a81548173ffffffffffffffffffffffffffffffffffffffff021916908373ffffffffffffffffffffffffffffffffffffffff160217905550611e516040805190810160405280600981526020017f6574685f6b6f76616e0000000000000000000000000000000000000000000000815250612746565b6001905061216a565b6000611e7973146500cfd35b22e4a392fe0adc06de1a1368ed48611446565b1115611f1b5773146500cfd35b22e4a392fe0adc06de1a1368ed48600260006101000a81548173ffffffffffffffffffffffffffffffffffffffff021916908373ffffffffffffffffffffffffffffffffffffffff160217905550611f126040805190810160405280600b81526020017f6574685f72696e6b656279000000000000000000000000000000000000000000815250612746565b6001905061216a565b6000611f3a73a2998efd205fb9d4b4963afb70778d6354ad3a41611446565b1115611fdc5773a2998efd205fb9d4b4963afb70778d6354ad3a41600260006101000a81548173ffffffffffffffffffffffffffffffffffffffff021916908373ffffffffffffffffffffffffffffffffffffffff160217905550611fd36040805190810160405280600a81526020017f6574685f676f65726c6900000000000000000000000000000000000000000000815250612746565b6001905061216a565b6000611ffb736f485c8bf6fc43ea212e93bbf8ce046c7f1cb475611446565b111561205f57736f485c8bf6fc43ea212e93bbf8ce046c7f1cb475600260006101000a81548173ffffffffffffffffffffffffffffffffffffffff021916908373ffffffffffffffffffffffffffffffffffffffff1602179055506001905061216a565b600061207e7320e12a1f859b3feae5fb2a0a32c18f5a65555bbf611446565b11156120e2577320e12a1f859b3feae5fb2a0a32c18f5a65555bbf600260006101000a81548173ffffffffffffffffffffffffffffffffffffffff021916908373ffffffffffffffffffffffffffffffffffffffff1602179055506001905061216a565b60006121017351efaf4c8b3c9afbd5ab9f4bbc82784ab6ef8faa611446565b1115612165577351efaf4c8b3c9afbd5ab9f4bbc82784ab6ef8faa600260006101000a81548173ffffffffffffffffffffffffffffffffffffffff021916908373ffffffffffffffffffffffffffffffffffffffff1602179055506001905061216a565b600090505b90565b60008073ffffffffffffffffffffffffffffffffffffffff16600260009054906101000a900473ffffffffffffffffffffffffffffffffffffffff1673ffffffffffffffffffffffffffffffffffffffff1614806121f5575060006121f3600260009054906101000a900473ffffffffffffffffffffffffffffffffffffffff16611446565b145b15612206576122046000611451565b505b600260009054906101000a900473ffffffffffffffffffffffffffffffffffffffff1673ffffffffffffffffffffffffffffffffffffffff166338cc48316040518163ffffffff167c0100000000000000000000000000000000000000000000000000000000028152600401602060405180830381600087803b15801561228c57600080fd5b505af11580156122a0573d6000803e3d6000fd5b505050506040513d60208110156122b657600080fd5b810190808051906020019092919050505073ffffffffffffffffffffffffffffffffffffffff16600160009054906101000a900473ffffffffffffffffffffffffffffffffffffffff1673ffffffffffffffffffffffffffffffffffffffff1614151561241f57600260009054906101000a900473ffffffffffffffffffffffffffffffffffffffff1673ffffffffffffffffffffffffffffffffffffffff166338cc48316040518163ffffffff167c0100000000000000000000000000000000000000000000000000000000028152600401602060405180830381600087803b1580156123a357600080fd5b505af11580156123b7573d6000803e3d6000fd5b505050506040513d60208110156123cd57600080fd5b8101908080519060200190929190505050600160006101000a81548173ffffffffffffffffffffffffffffffffffffffff021916908373ffffffffffffffffffffffffffffffffffffffff1602179055505b6000600160009054906101000a900473ffffffffffffffffffffffffffffffffffffffff1673ffffffffffffffffffffffffffffffffffffffff16632ef3accc86856040518363ffffffff167c01000000000000000000000000000000000000000000000000000000000281526004018080602001838152602001828103825284818151815260200191508051906020019080838360005b838110156124d25780820151818401526020810190506124b7565b50505050905090810190601f1680156124ff5780820380516001836020036101000a031916815260200191505b509350505050602060405180830381600087803b15801561251f57600080fd5b505af1158015612533573d6000803e3d6000fd5b505050506040513d602081101561254957600080fd5b81019080805190602001909291905050509050823a02670de0b6b3a76400000181111561257d57600060010291505061273f565b606061258885612760565b9050600160009054906101000a900473ffffffffffffffffffffffffffffffffffffffff1673ffffffffffffffffffffffffffffffffffffffff1663c55c1cb68360008985896040518663ffffffff167c0100000000000000000000000000000000000000000000000000000000028152600401808581526020018060200180602001848152602001838103835286818151815260200191508051906020019080838360005b8381101561264957808201518184015260208101905061262e565b50505050905090810190601f1680156126765780820380516001836020036101000a031916815260200191505b50838103825285818151815260200191508051906020019080838360005b838110156126af578082015181840152602081019050612694565b50505050905090810190601f1680156126dc5780820380516001836020036101000a031916815260200191505b5096505050505050506020604051808303818588803b1580156126fe57600080fd5b505af1158015612712573d6000803e3d6000fd5b50505050506040513d602081101561272957600080fd5b8101908080519060200190929190505050925050505b9392505050565b806003908051906020019061275c929190612bb9565b5050565b606061276a6127e4565b612772612c39565b61277e816104006127f0565b61278781612840565b60008090505b83518110156127cd576127c084828151811015156127a757fe5b906020019060200201518361284e90919063ffffffff16565b808060010191505061278d565b506127d781612873565b8060000151915050919050565b60405180590338823950565b6000819050600060208281151561280357fe5b061415156128205760208181151561281757fe5b06602003810190505b808360200181815250506040518084526000815281810160405250505050565b61284b816004612881565b50565b61285b82600283516128a5565b61286e81836129fe90919063ffffffff16565b505050565b61287e816007612881565b50565b6128a1601f60058360ff169060020a021783612aab90919063ffffffff16565b5050565b6017811115156128d6576128d18160058460ff169060020a0260ff161784612aab90919063ffffffff16565b6129f9565b60ff8111151561291c57612900601860058460ff169060020a021784612aab90919063ffffffff16565b61291681600185612aeb9092919063ffffffff16565b506129f8565b61ffff8111151561296357612947601960058460ff169060020a021784612aab90919063ffffffff16565b61295d81600285612aeb9092919063ffffffff16565b506129f7565b63ffffffff811115156129ac57612990601a60058460ff169060020a021784612aab90919063ffffffff16565b6129a681600485612aeb9092919063ffffffff16565b506129f6565b67ffffffffffffffff811115156129f5576129dd601b60058460ff169060020a021784612aab90919063ffffffff16565b6129f381600885612aeb9092919063ffffffff16565b505b5b5b5b5b505050565b612a06612c39565b82602001518360000151518351011115612a3657612a35836002612a2f86602001518651612b52565b02612b6e565b5b60008060008451905085518051602081830101945086518101825260208701935050505b602081101515612a7f5781518352602083019250602082019150602081039050612a5a565b60006001826020036101000a039050801983511681855116818117865250508694505050505092915050565b81602001516001836000015151011115612ad157612ad0826002846020015102612b6e565b5b815180516020818301018381536001820183525050505050565b612af3612c39565b836020015184600001515183011115612b2157612b20846002612b1a876020015186612b52565b02612b6e565b5b60006001836101000a0390508451805184818301018684198251161781528582018352505050849150509392505050565b600081831115612b6457829050612b68565b8190505b92915050565b606082600001519050612b8183836127f0565b612b8b83826129fe565b50505050565b6080604051908101604052806004905b6060815260200190600190039081612ba15790505090565b828054600181600116156101000203166002900490600052602060002090601f016020900481019282601f10612bfa57805160ff1916838001178555612c28565b82800160010185558215612c28579182015b82811115612c27578251825591602001919060010190612c0c565b5b509050612c359190612c53565b5090565b604080519081016040528060608152602001600081525090565b612c7591905b80821115612c71576000816000905550600101612c59565b5090565b9056fea165627a7a7230582092d1031df51e635d332dbda7dc940fad93ca4ed0bc2f099db77e9419b60896c50029",
  "source": "// SPDX-License-Identifier: MIT\npragma solidity >=0.4.22 <0.8.0;\n\nimport \"./Ownable.sol\";\nimport \"./provableAPI_0.5.sol\";\n\ncontract CoinFlip is Ownable, usingProvable {\n\n    event Result (uint result);\n    event LogNewProvableQuery(string description);\n    event generatedRandomNumber(uint256 randomNumber);\n\n    uint256 constant NUM_RANDOM_BYTES_REQUESTED = 1;\n    uint256 public latestNumber;\n\n    struct Player {\n        uint balance;\n        address payable id;\n    }\n    \n    mapping(address => Player) public players;\n\n    constructor()\n        public\n    {\n        update();\n    }\n\n    function playerBet(uint amount) public payable {\n        require(msg.value == amount);\n        update();\n        Player storage c = players[msg.sender];\n        c.id = msg.sender;\n\n        uint result = random();\n        if (result == 1) {\n            c.balance += amount;\n        }\n\n        emit Result(result);\n\n    }\n\n    // pseudo-random function returns a 1 or 0 (simulates 50% odds)\n    function random() public view returns (uint) {\n        return block.timestamp % 2;\n    }\n    \n    // returns this contract's current balance\n    function getContractBalance() public view returns (uint) {\n        return address(this).balance;\n    }\n\n    // returns msg.senders (player) balance\n    function userBalance() public view returns (uint balance) {\n        return players[msg.sender].balance;\n    }\n    \n    // withdraw Player winnings\n    function withdrawPlayerBalance() public {\n        require(players[msg.sender].balance > 0);\n        uint amount = players[msg.sender].balance;\n        msg.sender.transfer(amount);\n        Player storage c = players[msg.sender];\n        c.balance -= amount;\n    }\n\n    function withdrawContractBalance() public onlyOwner {\n        require(address(this).balance > 0);\n        uint amount = address(this).balance;\n        msg.sender.transfer(amount);\n    }\n\n    function __callback(bytes32 _queryId, string memory _result, bytes memory _proof) public {\n        require(msg.sender == provable_cbAddress());\n        \n        uint256 randomNumber = uint256(keccak256(abi.encodePacked(_result))) % 100;\n        latestNumber = randomNumber;\n        emit generatedRandomNumber(randomNumber);\n    }\n\n    function update()\n        payable\n        public\n    {\n        uint256 QUERY_EXECUTION_DELAY = 0; // NOTE: The datasource currently does not support delays > 0!\n        uint256 GAS_FOR_CALLBACK = 200000;\n        provable_newRandomDSQuery(\n            QUERY_EXECUTION_DELAY,\n            NUM_RANDOM_BYTES_REQUESTED,\n            GAS_FOR_CALLBACK\n        );\n        emit LogNewProvableQuery(\"Provable query was sent, standing by for the answer...\");\n    }\n\n}\n\n\n\n",
  "sourcePath": "/home/rodrigo/Documents/IvanOnTech/coin-flip-dapp/coin-flip-dapp/contracts/CoinFlip.sol",
  "compiler": {
    "name": "solc",
    "version": "0.5.0+commit.1d4f565a.Emscripten.clang"
  },
  "schemaVersion": "3.2.5",
  "updatedAt": "2020-10-31T22:23:52.029Z",
  "networkType": "ethereum",
  "devdoc": {
    "methods": {
      "__callback(bytes32,string)": {
        "details": "The following `__callback` functions are just placeholders ideally     meant to be defined in child contract when proofs are used.     The function bodies simply silence compiler warnings."
      }
    }
  },
  "userdoc": {
    "methods": {}
  }
}