{
  "contractName": "CoinFlip",
  "abi": [
    {
      "inputs": [
        {
          "internalType": "address",
          "name": "",
          "type": "address"
        }
      ],
      "name": "players",
      "outputs": [
        {
          "internalType": "uint256",
          "name": "balance",
          "type": "uint256"
        },
        {
          "internalType": "address payable",
          "name": "id",
          "type": "address"
        }
      ],
      "stateMutability": "view",
      "type": "function",
      "constant": true
    },
    {
      "inputs": [
        {
          "internalType": "uint256",
          "name": "amount",
          "type": "uint256"
        }
      ],
      "name": "playerBet",
      "outputs": [],
      "stateMutability": "payable",
      "type": "function",
      "payable": true
    },
    {
      "inputs": [],
      "name": "random",
      "outputs": [
        {
          "internalType": "uint256",
          "name": "",
          "type": "uint256"
        }
      ],
      "stateMutability": "view",
      "type": "function",
      "constant": true
    },
    {
      "inputs": [],
      "name": "getContractBalance",
      "outputs": [
        {
          "internalType": "uint256",
          "name": "",
          "type": "uint256"
        }
      ],
      "stateMutability": "view",
      "type": "function",
      "constant": true
    },
    {
      "inputs": [],
      "name": "withdrawPlayerBalance",
      "outputs": [],
      "stateMutability": "nonpayable",
      "type": "function"
    }
  ],
  "bytecode": "0x608060405234801561001057600080fd5b506103a3806100206000396000f3fe60806040526004361061004a5760003560e01c80630dea35bf1461004f5780635ec01e4d1461007d5780636f9fb98a146100a8578063d325101a146100d3578063e2eb41ff146100ea575b600080fd5b61007b6004803603602081101561006557600080fd5b810190808035906020019092919050505061016c565b005b34801561008957600080fd5b5061009261022a565b6040518082815260200191505060405180910390f35b3480156100b457600080fd5b506100bd61023c565b6040518082815260200191505060405180910390f35b3480156100df57600080fd5b506100e8610244565b005b3480156100f657600080fd5b506101396004803603602081101561010d57600080fd5b81019080803573ffffffffffffffffffffffffffffffffffffffff169060200190929190505050610329565b604051808381526020018273ffffffffffffffffffffffffffffffffffffffff1681526020019250505060405180910390f35b80341461017857600080fd5b60008060003373ffffffffffffffffffffffffffffffffffffffff1673ffffffffffffffffffffffffffffffffffffffff1681526020019081526020016000209050338160010160006101000a81548173ffffffffffffffffffffffffffffffffffffffff021916908373ffffffffffffffffffffffffffffffffffffffff160217905550600061020761022a565b90506001811415610225578282600001600082825401925050819055505b505050565b60006002428161023657fe5b06905090565b600047905090565b60008060003373ffffffffffffffffffffffffffffffffffffffff1673ffffffffffffffffffffffffffffffffffffffff1681526020019081526020016000206000015490503373ffffffffffffffffffffffffffffffffffffffff166108fc829081150290604051600060405180830381858888f193505050501580156102d0573d6000803e3d6000fd5b5060008060003373ffffffffffffffffffffffffffffffffffffffff1673ffffffffffffffffffffffffffffffffffffffff16815260200190815260200160002090508181600001600082825403925050819055505050565b60006020528060005260406000206000915090508060000154908060010160009054906101000a900473ffffffffffffffffffffffffffffffffffffffff1690508256fea2646970667358221220b49dae26fcad8d91b6d32d379593a8480d2caf81faf268e7ea7156649714f22d64736f6c63430007000033",
  "immutableReferences": {},
  "source": "// SPDX-License-Identifier: MIT\npragma solidity 0.7.0;\n\ncontract CoinFlip {\n\n    struct Player {\n        uint balance;\n        address payable id;\n    }\n    \n    mapping(address => Player) public players;\n\n    function playerBet(uint amount) public payable {\n        require(msg.value == amount);\n        Player storage c = players[msg.sender];\n        \n        c.id = msg.sender;\n        uint result = random();\n\n        if (result == 1) {\n            c.balance += amount;\n        }\n        \n    }\n\n    // pseudo-random function returns a 1 or 0 (simulates 50% odds)\n    function random() public view returns (uint) {\n        return block.timestamp % 2;\n    }\n    \n    // returns this contract's current balance\n    function getContractBalance() public view returns (uint) {\n        return address(this).balance;\n    }\n    \n    // withdraw Player winnings\n    function withdrawPlayerBalance() public {\n        // return players[msg.sender].balance;\n        uint amount = players[msg.sender].balance;\n        msg.sender.transfer(amount);\n        Player storage c = players[msg.sender];\n        c.balance -= amount;\n    }\n\n}",
  "sourcePath": "/home/rodrigo/Documents/IvanOnTech/coin-flip-dapp/coin-flip-dapp/contracts/CoinFlip.sol",
  "compiler": {
    "name": "solc",
    "version": "0.7.0+commit.9e61f92b.Emscripten.clang"
  },
  "schemaVersion": "3.2.5",
  "updatedAt": "2020-10-28T05:02:21.089Z",
  "networkType": "ethereum",
  "devdoc": {
    "kind": "dev",
    "methods": {},
    "version": 1
  },
  "userdoc": {
    "kind": "user",
    "methods": {},
    "version": 1
  }
}