{
  "contractName": "CoinFlip",
  "abi": [
    {
      "constant": true,
      "inputs": [
        {
          "name": "",
          "type": "bytes32"
        }
      ],
      "name": "queries",
      "outputs": [
        {
          "name": "",
          "type": "address"
        }
      ],
      "payable": false,
      "stateMutability": "view",
      "type": "function"
    },
    {
      "constant": true,
      "inputs": [],
      "name": "owner",
      "outputs": [
        {
          "name": "",
          "type": "address"
        }
      ],
      "payable": false,
      "stateMutability": "view",
      "type": "function"
    },
    {
      "constant": true,
      "inputs": [
        {
          "name": "",
          "type": "address"
        }
      ],
      "name": "players",
      "outputs": [
        {
          "name": "balance",
          "type": "uint256"
        },
        {
          "name": "latestBet",
          "type": "uint256"
        },
        {
          "name": "waiting",
          "type": "bool"
        },
        {
          "name": "wins",
          "type": "uint256"
        },
        {
          "name": "losses",
          "type": "uint256"
        },
        {
          "name": "betChoice",
          "type": "uint256"
        },
        {
          "name": "latestNumber",
          "type": "uint256"
        }
      ],
      "payable": false,
      "stateMutability": "view",
      "type": "function"
    },
    {
      "anonymous": false,
      "inputs": [
        {
          "indexed": false,
          "name": "description",
          "type": "string"
        }
      ],
      "name": "LogNewProvableQuery",
      "type": "event"
    },
    {
      "anonymous": false,
      "inputs": [
        {
          "indexed": false,
          "name": "randomNumber",
          "type": "uint256"
        }
      ],
      "name": "generatedRandomNumber",
      "type": "event"
    },
    {
      "anonymous": false,
      "inputs": [
        {
          "indexed": false,
          "name": "queryId",
          "type": "bytes32"
        }
      ],
      "name": "oracleId",
      "type": "event"
    },
    {
      "anonymous": false,
      "inputs": [
        {
          "indexed": false,
          "name": "playerWallet",
          "type": "address"
        }
      ],
      "name": "wallet",
      "type": "event"
    },
    {
      "anonymous": false,
      "inputs": [
        {
          "indexed": false,
          "name": "bet",
          "type": "uint256"
        }
      ],
      "name": "betAmount",
      "type": "event"
    },
    {
      "anonymous": false,
      "inputs": [
        {
          "indexed": false,
          "name": "wins",
          "type": "uint256"
        }
      ],
      "name": "wins",
      "type": "event"
    },
    {
      "anonymous": false,
      "inputs": [
        {
          "indexed": false,
          "name": "losses",
          "type": "uint256"
        }
      ],
      "name": "losses",
      "type": "event"
    },
    {
      "constant": true,
      "inputs": [
        {
          "name": "a",
          "type": "address"
        }
      ],
      "name": "oracleResult",
      "outputs": [
        {
          "name": "",
          "type": "uint256"
        }
      ],
      "payable": false,
      "stateMutability": "view",
      "type": "function"
    },
    {
      "constant": true,
      "inputs": [
        {
          "name": "a",
          "type": "address"
        }
      ],
      "name": "getWins",
      "outputs": [
        {
          "name": "",
          "type": "uint256"
        }
      ],
      "payable": false,
      "stateMutability": "view",
      "type": "function"
    },
    {
      "constant": true,
      "inputs": [
        {
          "name": "a",
          "type": "address"
        }
      ],
      "name": "getLosses",
      "outputs": [
        {
          "name": "",
          "type": "uint256"
        }
      ],
      "payable": false,
      "stateMutability": "view",
      "type": "function"
    },
    {
      "constant": true,
      "inputs": [],
      "name": "getContractBalance",
      "outputs": [
        {
          "name": "",
          "type": "uint256"
        }
      ],
      "payable": false,
      "stateMutability": "view",
      "type": "function"
    },
    {
      "constant": true,
      "inputs": [],
      "name": "userBalance",
      "outputs": [
        {
          "name": "balance",
          "type": "uint256"
        }
      ],
      "payable": false,
      "stateMutability": "view",
      "type": "function"
    },
    {
      "constant": false,
      "inputs": [],
      "name": "withdrawPlayerBalance",
      "outputs": [],
      "payable": false,
      "stateMutability": "nonpayable",
      "type": "function"
    },
    {
      "constant": false,
      "inputs": [],
      "name": "withdrawContractBalance",
      "outputs": [],
      "payable": false,
      "stateMutability": "nonpayable",
      "type": "function"
    },
    {
      "constant": false,
      "inputs": [
        {
          "name": "_queryId",
          "type": "bytes32"
        },
        {
          "name": "_result",
          "type": "string"
        }
      ],
      "name": "__callback",
      "outputs": [],
      "payable": false,
      "stateMutability": "nonpayable",
      "type": "function"
    },
    {
      "constant": false,
      "inputs": [
        {
          "name": "_myid",
          "type": "bytes32"
        },
        {
          "name": "_result",
          "type": "string"
        },
        {
          "name": "_proof",
          "type": "bytes"
        }
      ],
      "name": "__callback",
      "outputs": [],
      "payable": false,
      "stateMutability": "nonpayable",
      "type": "function"
    },
    {
      "constant": false,
      "inputs": [
        {
          "name": "amount",
          "type": "uint256"
        },
        {
          "name": "betChoice",
          "type": "uint256"
        }
      ],
      "name": "playerBet",
      "outputs": [],
      "payable": true,
      "stateMutability": "payable",
      "type": "function"
    }
  ],
  "bytecode": "0x6080604052336000806101000a81548173ffffffffffffffffffffffffffffffffffffffff021916908373ffffffffffffffffffffffffffffffffffffffff16021790555061316c806100536000396000f3fe6080604052600436106100c5576000357c0100000000000000000000000000000000000000000000000000000000900463ffffffff16806321dfb600146100ca57806327dc297e1461014557806338bbfa50146102175780636f9fb98a146103805780638da5cb5b146103ab578063af468f2a14610402578063bf1527651461043a578063bfab3db914610465578063d325101a1461047c578063e2eb41ff14610493578063ef5ec25014610526578063fc329d0c1461058b578063ffb1a6cb146105f0575b600080fd5b3480156100d657600080fd5b50610103600480360360208110156100ed57600080fd5b8101908080359060200190929190505050610655565b604051808273ffffffffffffffffffffffffffffffffffffffff1673ffffffffffffffffffffffffffffffffffffffff16815260200191505060405180910390f35b34801561015157600080fd5b506102156004803603604081101561016857600080fd5b81019080803590602001909291908035906020019064010000000081111561018f57600080fd5b8201836020820111156101a157600080fd5b803590602001918460018302840111640100000000831117156101c357600080fd5b91908080601f016020809104026020016040519081016040528093929190818152602001838380828437600081840152601f19601f820116905080830192505050505050509192919290505050610688565b005b34801561022357600080fd5b5061037e6004803603606081101561023a57600080fd5b81019080803590602001909291908035906020019064010000000081111561026157600080fd5b82018360208201111561027357600080fd5b8035906020019184600183028401116401000000008311171561029557600080fd5b91908080601f016020809104026020016040519081016040528093929190818152602001838380828437600081840152601f19601f820116905080830192505050505050509192919290803590602001906401000000008111156102f857600080fd5b82018360208201111561030a57600080fd5b8035906020019184600183028401116401000000008311171561032c57600080fd5b91908080601f016020809104026020016040519081016040528093929190818152602001838380828437600081840152601f19601f820116905080830192505050505050509192919290505050610994565b005b34801561038c57600080fd5b506103956109b8565b6040518082815260200191505060405180910390f35b3480156103b757600080fd5b506103c06109d7565b604051808273ffffffffffffffffffffffffffffffffffffffff1673ffffffffffffffffffffffffffffffffffffffff16815260200191505060405180910390f35b6104386004803603604081101561041857600080fd5b8101908080359060200190929190803590602001909291905050506109fc565b005b34801561044657600080fd5b5061044f610c1a565b6040518082815260200191505060405180910390f35b34801561047157600080fd5b5061047a610c64565b005b34801561048857600080fd5b50610491610d4b565b005b34801561049f57600080fd5b506104e2600480360360208110156104b657600080fd5b81019080803573ffffffffffffffffffffffffffffffffffffffff169060200190929190505050610e97565b604051808881526020018781526020018615151515815260200185815260200184815260200183815260200182815260200197505050505050505060405180910390f35b34801561053257600080fd5b506105756004803603602081101561054957600080fd5b81019080803573ffffffffffffffffffffffffffffffffffffffff169060200190929190505050610ee6565b6040518082815260200191505060405180910390f35b34801561059757600080fd5b506105da600480360360208110156105ae57600080fd5b81019080803573ffffffffffffffffffffffffffffffffffffffff169060200190929190505050610f32565b6040518082815260200191505060405180910390f35b3480156105fc57600080fd5b5061063f6004803603602081101561061357600080fd5b81019080803573ffffffffffffffffffffffffffffffffffffffff169060200190929190505050610f7e565b6040518082815260200191505060405180910390f35b60076020528060005260406000206000915054906101000a900473ffffffffffffffffffffffffffffffffffffffff1681565b610690610fca565b73ffffffffffffffffffffffffffffffffffffffff163373ffffffffffffffffffffffffffffffffffffffff161415156106c957600080fd5b60006002826040516020018082805190602001908083835b60208310151561070657805182526020820191506020810190506020830392506106e1565b6001836020036101000a038019825116818451168082178552505050505050905001915050604051602081830303815290604052805190602001206001900481151561074e57fe5b06905060006007600085815260200190815260200160002060009054906101000a900473ffffffffffffffffffffffffffffffffffffffff1690506000600660008373ffffffffffffffffffffffffffffffffffffffff1673ffffffffffffffffffffffffffffffffffffffff168152602001908152602001600020905060008160020160006101000a81548160ff02191690831515021790555082816006018190555060008160010154905081600501548414156108315780826000016000828254019250508190555060018260030160008282540192505081905550610845565b600182600401600082825401925050819055505b7fa56cc439a4a9c2dd18e692235b83c464c62e8126fedba30d1b52d717fecc707983604051808273ffffffffffffffffffffffffffffffffffffffff1673ffffffffffffffffffffffffffffffffffffffff16815260200191505060405180910390a17ff299f526007743af0417805f3b871b52042051cfb84ac9bb89cd6aaf09fec3b0816040518082815260200191505060405180910390a17fc13d60fe9dffdb6908d2d446cd18134373a51db0738ee04f296eeb9128121cbc846040518082815260200191505060405180910390a17f80bfe8831041ffcdda4cbfc2fe04a5eb362e41840c30f40aabf28751bca57bad82600301546040518082815260200191505060405180910390a17f99bb5215aa5165d354aaab1a2f4dd9613f9ef4586fb0075499afbea8a0a1958482600401546040518082815260200191505060405180910390a1505050505050565b60006001026004600080600102815260200190815260200160002081905550505050565b60003073ffffffffffffffffffffffffffffffffffffffff1631905090565b6000809054906101000a900473ffffffffffffffffffffffffffffffffffffffff1681565b8134141515610a0a57600080fd5b60001515600660003373ffffffffffffffffffffffffffffffffffffffff1673ffffffffffffffffffffffffffffffffffffffff16815260200190815260200160002060020160009054906101000a900460ff161515141515610a6c57600080fd5b6000809050600062030d4090506000610a8783600184611340565b9050336007600083815260200190815260200160002060006101000a81548173ffffffffffffffffffffffffffffffffffffffff021916908373ffffffffffffffffffffffffffffffffffffffff1602179055506000600660003373ffffffffffffffffffffffffffffffffffffffff1673ffffffffffffffffffffffffffffffffffffffff168152602001908152602001600020905085816001018190555060018160020160006101000a81548160ff0219169083151502179055508481600501819055507fa927109c283ca70b4dd7f2ae80d1981bf9f5fee2c408485ef548283a9faea0b1826040518082815260200191505060405180910390a17fc4dc360d0a9c0677a3379ae0a3d81e887f761e65fdf3d7e00859d1bcd3c473896040518080602001828103825260368152602001807f50726f7661626c65207175657279207761732073656e742c207374616e64696e81526020017f6720627920666f722074686520616e737765722e2e2e0000000000000000000081525060400191505060405180910390a1505050505050565b6000600660003373ffffffffffffffffffffffffffffffffffffffff1673ffffffffffffffffffffffffffffffffffffffff16815260200190815260200160002060000154905090565b6000809054906101000a900473ffffffffffffffffffffffffffffffffffffffff1673ffffffffffffffffffffffffffffffffffffffff163373ffffffffffffffffffffffffffffffffffffffff16141515610cbf57600080fd5b60003073ffffffffffffffffffffffffffffffffffffffff1631111515610ce557600080fd5b60003073ffffffffffffffffffffffffffffffffffffffff163190503373ffffffffffffffffffffffffffffffffffffffff166108fc829081150290604051600060405180830381858888f19350505050158015610d47573d6000803e3d6000fd5b5050565b6000600660003373ffffffffffffffffffffffffffffffffffffffff1673ffffffffffffffffffffffffffffffffffffffff16815260200190815260200160002060000154111515610d9c57600080fd5b6000600660003373ffffffffffffffffffffffffffffffffffffffff1673ffffffffffffffffffffffffffffffffffffffff1681526020019081526020016000206000015490503373ffffffffffffffffffffffffffffffffffffffff166108fc829081150290604051600060405180830381858888f19350505050158015610e29573d6000803e3d6000fd5b506000600660003373ffffffffffffffffffffffffffffffffffffffff1673ffffffffffffffffffffffffffffffffffffffff168152602001908152602001600020905081816000016000828254039250508190555060008160030181905550600081600401819055505050565b60066020528060005260406000206000915090508060000154908060010154908060020160009054906101000a900460ff16908060030154908060040154908060050154908060060154905087565b6000600660008373ffffffffffffffffffffffffffffffffffffffff1673ffffffffffffffffffffffffffffffffffffffff168152602001908152602001600020600601549050919050565b6000600660008373ffffffffffffffffffffffffffffffffffffffff1673ffffffffffffffffffffffffffffffffffffffff168152602001908152602001600020600401549050919050565b6000600660008373ffffffffffffffffffffffffffffffffffffffff1673ffffffffffffffffffffffffffffffffffffffff168152602001908152602001600020600301549050919050565b60008073ffffffffffffffffffffffffffffffffffffffff16600260009054906101000a900473ffffffffffffffffffffffffffffffffffffffff1673ffffffffffffffffffffffffffffffffffffffff16148061105257506000611050600260009054906101000a900473ffffffffffffffffffffffffffffffffffffffff1661190e565b145b15611063576110616000611919565b505b600260009054906101000a900473ffffffffffffffffffffffffffffffffffffffff1673ffffffffffffffffffffffffffffffffffffffff166338cc48316040518163ffffffff167c0100000000000000000000000000000000000000000000000000000000028152600401602060405180830381600087803b1580156110e957600080fd5b505af11580156110fd573d6000803e3d6000fd5b505050506040513d602081101561111357600080fd5b810190808051906020019092919050505073ffffffffffffffffffffffffffffffffffffffff16600160009054906101000a900473ffffffffffffffffffffffffffffffffffffffff1673ffffffffffffffffffffffffffffffffffffffff1614151561127c57600260009054906101000a900473ffffffffffffffffffffffffffffffffffffffff1673ffffffffffffffffffffffffffffffffffffffff166338cc48316040518163ffffffff167c0100000000000000000000000000000000000000000000000000000000028152600401602060405180830381600087803b15801561120057600080fd5b505af1158015611214573d6000803e3d6000fd5b505050506040513d602081101561122a57600080fd5b8101908080519060200190929190505050600160006101000a81548173ffffffffffffffffffffffffffffffffffffffff021916908373ffffffffffffffffffffffffffffffffffffffff1602179055505b600160009054906101000a900473ffffffffffffffffffffffffffffffffffffffff1673ffffffffffffffffffffffffffffffffffffffff1663c281d19e6040518163ffffffff167c010000000000000000000000000000000000000000000000000000000002815260040160206040518083038186803b15801561130057600080fd5b505afa158015611314573d6000803e3d6000fd5b505050506040513d602081101561132a57600080fd5b8101908080519060200190929190505050905090565b60008083118015611352575060208311155b151561135d57600080fd5b600a84029350606060016040519080825280601f01601f1916602001820160405280156113995781602001600182028038833980820191505090505b509050837f0100000000000000000000000000000000000000000000000000000000000000028160008151811015156113ce57fe5b9060200101907effffffffffffffffffffffffffffffffffffffffffffffffffffffffffffff1916908160001a905350606060206040519080825280601f01601f1916602001820160405280156114345781602001600182028038833980820191505090505b509050606060206040519080825280601f01601f19166020018201604052801561146d5781602001600182028038833980820191505090505b509050600061147a61192a565b905060208352424118600143034018602084015260208252806020830152606060206040519080825280601f01601f1916602001820160405280156114ce5781602001600182028038833980820191505090505b509050886020820152606060086040519080825280601f01601f19166020018201604052801561150d5781602001600182028038833980820191505090505b5090506115208260186008846000611ca0565b50611529613059565b608060405190810160405280878152602001888152602001868152602001848152509050600061158f6040805190810160405280600681526020017f72616e646f6d0000000000000000000000000000000000000000000000000000815250838c611d01565b9050606060086040519080825280601f01601f1916602001820160405280156115c75781602001600182028038833980820191505090505b50905060208401517f0100000000000000000000000000000000000000000000000000000000000000810460278301537e01000000000000000000000000000000000000000000000000000000000000810460268301537d010000000000000000000000000000000000000000000000000000000000810460258301537c0100000000000000000000000000000000000000000000000000000000810460248301537b01000000000000000000000000000000000000000000000000000000810460238301537a0100000000000000000000000000000000000000000000000000008104602283015379010000000000000000000000000000000000000000000000000081046021830153780100000000000000000000000000000000000000000000000081046020830153506118fb828285600160048110151561170857fe5b6020020151600287600060048110151561171e57fe5b60200201516040518082805190602001908083835b6020831015156117585780518252602082019150602081019050602083039250611733565b6001836020036101000a038019825116818451168082178552505050505050905001915050602060405180830381855afa15801561179a573d6000803e3d6000fd5b5050506040513d60208110156117af57600080fd5b81019080805190602001909291905050508760026004811015156117cf57fe5b60200201516040516020018085805190602001908083835b60208310151561180c57805182526020820191506020810190506020830392506117e7565b6001836020036101000a03801982511681845116808217855250505050505090500184805190602001908083835b60208310151561185f578051825260208201915060208101905060208303925061183a565b6001836020036101000a03801982511681845116808217855250505050505090500183815260200182805190602001908083835b6020831015156118b85780518252602082019150602081019050602083039250611893565b6001836020036101000a038019825116818451168082178552505050505050905001945050505050604051602081830303815290604052805190602001206120c2565b8199505050505050505050509392505050565b6000813b9050919050565b60006119236120de565b9050919050565b60008073ffffffffffffffffffffffffffffffffffffffff16600260009054906101000a900473ffffffffffffffffffffffffffffffffffffffff1673ffffffffffffffffffffffffffffffffffffffff1614806119b2575060006119b0600260009054906101000a900473ffffffffffffffffffffffffffffffffffffffff1661190e565b145b156119c3576119c16000611919565b505b600260009054906101000a900473ffffffffffffffffffffffffffffffffffffffff1673ffffffffffffffffffffffffffffffffffffffff166338cc48316040518163ffffffff167c0100000000000000000000000000000000000000000000000000000000028152600401602060405180830381600087803b158015611a4957600080fd5b505af1158015611a5d573d6000803e3d6000fd5b505050506040513d6020811015611a7357600080fd5b810190808051906020019092919050505073ffffffffffffffffffffffffffffffffffffffff16600160009054906101000a900473ffffffffffffffffffffffffffffffffffffffff1673ffffffffffffffffffffffffffffffffffffffff16141515611bdc57600260009054906101000a900473ffffffffffffffffffffffffffffffffffffffff1673ffffffffffffffffffffffffffffffffffffffff166338cc48316040518163ffffffff167c0100000000000000000000000000000000000000000000000000000000028152600401602060405180830381600087803b158015611b6057600080fd5b505af1158015611b74573d6000803e3d6000fd5b505050506040513d6020811015611b8a57600080fd5b8101908080519060200190929190505050600160006101000a81548173ffffffffffffffffffffffffffffffffffffffff021916908373ffffffffffffffffffffffffffffffffffffffff1602179055505b600160009054906101000a900473ffffffffffffffffffffffffffffffffffffffff1673ffffffffffffffffffffffffffffffffffffffff1663abaa5f3e6040518163ffffffff167c010000000000000000000000000000000000000000000000000000000002815260040160206040518083038186803b158015611c6057600080fd5b505afa158015611c74573d6000803e3d6000fd5b505050506040513d6020811015611c8a57600080fd5b8101908080519060200190929190505050905090565b60606000828501905080845110151515611cb957600080fd5b600086602001905060008460200190505b868860200101821015611cf25781890151808288015250602082019150602081019050611cca565b85935050505095945050505050565b60008073ffffffffffffffffffffffffffffffffffffffff16600260009054906101000a900473ffffffffffffffffffffffffffffffffffffffff1673ffffffffffffffffffffffffffffffffffffffff161480611d8957506000611d87600260009054906101000a900473ffffffffffffffffffffffffffffffffffffffff1661190e565b145b15611d9a57611d986000611919565b505b600260009054906101000a900473ffffffffffffffffffffffffffffffffffffffff1673ffffffffffffffffffffffffffffffffffffffff166338cc48316040518163ffffffff167c0100000000000000000000000000000000000000000000000000000000028152600401602060405180830381600087803b158015611e2057600080fd5b505af1158015611e34573d6000803e3d6000fd5b505050506040513d6020811015611e4a57600080fd5b810190808051906020019092919050505073ffffffffffffffffffffffffffffffffffffffff16600160009054906101000a900473ffffffffffffffffffffffffffffffffffffffff1673ffffffffffffffffffffffffffffffffffffffff16141515611fb357600260009054906101000a900473ffffffffffffffffffffffffffffffffffffffff1673ffffffffffffffffffffffffffffffffffffffff166338cc48316040518163ffffffff167c0100000000000000000000000000000000000000000000000000000000028152600401602060405180830381600087803b158015611f3757600080fd5b505af1158015611f4b573d6000803e3d6000fd5b505050506040513d6020811015611f6157600080fd5b8101908080519060200190929190505050600160006101000a81548173ffffffffffffffffffffffffffffffffffffffff021916908373ffffffffffffffffffffffffffffffffffffffff1602179055505b60606004604051908082528060200260200182016040528015611fea57816020015b6060815260200190600190039081611fd55790505b509050836000600481101515611ffc57fe5b602002015181600081518110151561201057fe5b9060200190602002018190525083600160048110151561202c57fe5b602002015181600181518110151561204057fe5b9060200190602002018190525083600260048110151561205c57fe5b602002015181600281518110151561207057fe5b9060200190602002018190525083600360048110151561208c57fe5b60200201518160038151811015156120a057fe5b906020019060200201819052506120b8858285612635565b9150509392505050565b8060046000848152602001908152602001600020819055505050565b6000806120fe731d3b2638a7cc9f2cb3d298a3da7a90b67e5506ed61190e565b11156121a057731d3b2638a7cc9f2cb3d298a3da7a90b67e5506ed600260006101000a81548173ffffffffffffffffffffffffffffffffffffffff021916908373ffffffffffffffffffffffffffffffffffffffff1602179055506121976040805190810160405280600b81526020017f6574685f6d61696e6e6574000000000000000000000000000000000000000000815250612c0e565b60019050612632565b60006121bf73c03a2615d5efaf5f49f60b7bb6583eaec212fdf161190e565b11156122615773c03a2615d5efaf5f49f60b7bb6583eaec212fdf1600260006101000a81548173ffffffffffffffffffffffffffffffffffffffff021916908373ffffffffffffffffffffffffffffffffffffffff1602179055506122586040805190810160405280600c81526020017f6574685f726f707374656e330000000000000000000000000000000000000000815250612c0e565b60019050612632565b600061228073b7a07bcf2ba2f2703b24c0691b5278999c59ac7e61190e565b11156123225773b7a07bcf2ba2f2703b24c0691b5278999c59ac7e600260006101000a81548173ffffffffffffffffffffffffffffffffffffffff021916908373ffffffffffffffffffffffffffffffffffffffff1602179055506123196040805190810160405280600981526020017f6574685f6b6f76616e0000000000000000000000000000000000000000000000815250612c0e565b60019050612632565b600061234173146500cfd35b22e4a392fe0adc06de1a1368ed4861190e565b11156123e35773146500cfd35b22e4a392fe0adc06de1a1368ed48600260006101000a81548173ffffffffffffffffffffffffffffffffffffffff021916908373ffffffffffffffffffffffffffffffffffffffff1602179055506123da6040805190810160405280600b81526020017f6574685f72696e6b656279000000000000000000000000000000000000000000815250612c0e565b60019050612632565b600061240273a2998efd205fb9d4b4963afb70778d6354ad3a4161190e565b11156124a45773a2998efd205fb9d4b4963afb70778d6354ad3a41600260006101000a81548173ffffffffffffffffffffffffffffffffffffffff021916908373ffffffffffffffffffffffffffffffffffffffff16021790555061249b6040805190810160405280600a81526020017f6574685f676f65726c6900000000000000000000000000000000000000000000815250612c0e565b60019050612632565b60006124c3736f485c8bf6fc43ea212e93bbf8ce046c7f1cb47561190e565b111561252757736f485c8bf6fc43ea212e93bbf8ce046c7f1cb475600260006101000a81548173ffffffffffffffffffffffffffffffffffffffff021916908373ffffffffffffffffffffffffffffffffffffffff16021790555060019050612632565b60006125467320e12a1f859b3feae5fb2a0a32c18f5a65555bbf61190e565b11156125aa577320e12a1f859b3feae5fb2a0a32c18f5a65555bbf600260006101000a81548173ffffffffffffffffffffffffffffffffffffffff021916908373ffffffffffffffffffffffffffffffffffffffff16021790555060019050612632565b60006125c97351efaf4c8b3c9afbd5ab9f4bbc82784ab6ef8faa61190e565b111561262d577351efaf4c8b3c9afbd5ab9f4bbc82784ab6ef8faa600260006101000a81548173ffffffffffffffffffffffffffffffffffffffff021916908373ffffffffffffffffffffffffffffffffffffffff16021790555060019050612632565b600090505b90565b60008073ffffffffffffffffffffffffffffffffffffffff16600260009054906101000a900473ffffffffffffffffffffffffffffffffffffffff1673ffffffffffffffffffffffffffffffffffffffff1614806126bd575060006126bb600260009054906101000a900473ffffffffffffffffffffffffffffffffffffffff1661190e565b145b156126ce576126cc6000611919565b505b600260009054906101000a900473ffffffffffffffffffffffffffffffffffffffff1673ffffffffffffffffffffffffffffffffffffffff166338cc48316040518163ffffffff167c0100000000000000000000000000000000000000000000000000000000028152600401602060405180830381600087803b15801561275457600080fd5b505af1158015612768573d6000803e3d6000fd5b505050506040513d602081101561277e57600080fd5b810190808051906020019092919050505073ffffffffffffffffffffffffffffffffffffffff16600160009054906101000a900473ffffffffffffffffffffffffffffffffffffffff1673ffffffffffffffffffffffffffffffffffffffff161415156128e757600260009054906101000a900473ffffffffffffffffffffffffffffffffffffffff1673ffffffffffffffffffffffffffffffffffffffff166338cc48316040518163ffffffff167c0100000000000000000000000000000000000000000000000000000000028152600401602060405180830381600087803b15801561286b57600080fd5b505af115801561287f573d6000803e3d6000fd5b505050506040513d602081101561289557600080fd5b8101908080519060200190929190505050600160006101000a81548173ffffffffffffffffffffffffffffffffffffffff021916908373ffffffffffffffffffffffffffffffffffffffff1602179055505b6000600160009054906101000a900473ffffffffffffffffffffffffffffffffffffffff1673ffffffffffffffffffffffffffffffffffffffff16632ef3accc86856040518363ffffffff167c01000000000000000000000000000000000000000000000000000000000281526004018080602001838152602001828103825284818151815260200191508051906020019080838360005b8381101561299a57808201518184015260208101905061297f565b50505050905090810190601f1680156129c75780820380516001836020036101000a031916815260200191505b509350505050602060405180830381600087803b1580156129e757600080fd5b505af11580156129fb573d6000803e3d6000fd5b505050506040513d6020811015612a1157600080fd5b81019080805190602001909291905050509050823a02670de0b6b3a764000001811115612a45576000600102915050612c07565b6060612a5085612c28565b9050600160009054906101000a900473ffffffffffffffffffffffffffffffffffffffff1673ffffffffffffffffffffffffffffffffffffffff1663c55c1cb68360008985896040518663ffffffff167c0100000000000000000000000000000000000000000000000000000000028152600401808581526020018060200180602001848152602001838103835286818151815260200191508051906020019080838360005b83811015612b11578082015181840152602081019050612af6565b50505050905090810190601f168015612b3e5780820380516001836020036101000a031916815260200191505b50838103825285818151815260200191508051906020019080838360005b83811015612b77578082015181840152602081019050612b5c565b50505050905090810190601f168015612ba45780820380516001836020036101000a031916815260200191505b5096505050505050506020604051808303818588803b158015612bc657600080fd5b505af1158015612bda573d6000803e3d6000fd5b50505050506040513d6020811015612bf157600080fd5b8101908080519060200190929190505050925050505b9392505050565b8060039080519060200190612c24929190613081565b5050565b6060612c32612cac565b612c3a613101565b612c4681610400612cb8565b612c4f81612d08565b60008090505b8351811015612c9557612c888482815181101515612c6f57fe5b9060200190602002015183612d1690919063ffffffff16565b8080600101915050612c55565b50612c9f81612d3b565b8060000151915050919050565b60405180590338823950565b60008190506000602082811515612ccb57fe5b06141515612ce857602081811515612cdf57fe5b06602003810190505b808360200181815250506040518084526000815281810160405250505050565b612d13816004612d49565b50565b612d238260028351612d6d565b612d368183612ec690919063ffffffff16565b505050565b612d46816007612d49565b50565b612d69601f60058360ff169060020a021783612f7390919063ffffffff16565b5050565b601781111515612d9e57612d998160058460ff169060020a0260ff161784612f7390919063ffffffff16565b612ec1565b60ff81111515612de457612dc8601860058460ff169060020a021784612f7390919063ffffffff16565b612dde81600185612fb39092919063ffffffff16565b50612ec0565b61ffff81111515612e2b57612e0f601960058460ff169060020a021784612f7390919063ffffffff16565b612e2581600285612fb39092919063ffffffff16565b50612ebf565b63ffffffff81111515612e7457612e58601a60058460ff169060020a021784612f7390919063ffffffff16565b612e6e81600485612fb39092919063ffffffff16565b50612ebe565b67ffffffffffffffff81111515612ebd57612ea5601b60058460ff169060020a021784612f7390919063ffffffff16565b612ebb81600885612fb39092919063ffffffff16565b505b5b5b5b5b505050565b612ece613101565b82602001518360000151518351011115612efe57612efd836002612ef78660200151865161301a565b02613036565b5b60008060008451905085518051602081830101945086518101825260208701935050505b602081101515612f475781518352602083019250602082019150602081039050612f22565b60006001826020036101000a039050801983511681855116818117865250508694505050505092915050565b81602001516001836000015151011115612f9957612f98826002846020015102613036565b5b815180516020818301018381536001820183525050505050565b612fbb613101565b836020015184600001515183011115612fe957612fe8846002612fe287602001518661301a565b02613036565b5b60006001836101000a0390508451805184818301018684198251161781528582018352505050849150509392505050565b60008183111561302c57829050613030565b8190505b92915050565b6060826000015190506130498383612cb8565b6130538382612ec6565b50505050565b6080604051908101604052806004905b60608152602001906001900390816130695790505090565b828054600181600116156101000203166002900490600052602060002090601f016020900481019282601f106130c257805160ff19168380011785556130f0565b828001600101855582156130f0579182015b828111156130ef5782518255916020019190600101906130d4565b5b5090506130fd919061311b565b5090565b604080519081016040528060608152602001600081525090565b61313d91905b80821115613139576000816000905550600101613121565b5090565b9056fea165627a7a72305820a0497d30c752d71bcb94b8656a315d3b78c639eed8d3843985f8cb3742912b230029",
  "source": "// SPDX-License-Identifier: MIT\npragma solidity >=0.4.22 <0.8.0;\n\nimport \"./Ownable.sol\";\nimport \"./provableAPI_0.5.sol\";\n\ncontract CoinFlip is Ownable, usingProvable {\n\n    event LogNewProvableQuery(string description);\n    event generatedRandomNumber(uint256 randomNumber);\n    event oracleId(bytes32 queryId);\n    event wallet(address playerWallet);\n    event betAmount(uint bet);\n    event wins(uint wins);\n    event losses(uint losses);\n\n\n    uint256 constant NUM_RANDOM_BYTES_REQUESTED = 1;\n\n    struct Player {\n        uint balance;\n        uint latestBet;\n        bool waiting;\n        uint wins;\n        uint losses;\n        uint betChoice;\n        uint latestNumber;\n    }\n    \n    mapping(address => Player) public players;\n    mapping(bytes32 => address) public queries;\n\n    function oracleResult(address a) public view returns (uint) {\n        return players[a].latestNumber;\n    }\n\n    function getWins(address a) public view returns (uint) {\n        return players[a].wins;\n    }\n\n    function getLosses(address a) public view returns (uint) {\n        return players[a].losses;\n    }\n\n    // returns this contract's current balance\n    function getContractBalance() public view returns (uint) {\n        return address(this).balance;\n    }\n\n    // returns msg.senders (player) balance\n    function userBalance() public view returns (uint balance) {\n        return players[msg.sender].balance;\n    }\n\n    // withdraw Player winnings\n    function withdrawPlayerBalance() public {\n        require(players[msg.sender].balance > 0);\n        uint amount = players[msg.sender].balance;\n        msg.sender.transfer(amount);\n        Player storage c = players[msg.sender];\n        c.balance -= amount;\n        c.wins = 0;\n        c.losses = 0;\n    }\n\n    function withdrawContractBalance() public onlyOwner {\n        require(address(this).balance > 0);\n        uint amount = address(this).balance;\n        msg.sender.transfer(amount);\n    }\n\n    function __callback(bytes32 _queryId, string memory _result) public {\n        require(msg.sender == provable_cbAddress());\n        \n        uint256 randomNumber = uint256(keccak256(abi.encodePacked(_result))) % 2;\n\n        address playerWallet = queries[_queryId];\n        Player storage c = players[playerWallet];\n        c.waiting = false;\n        c.latestNumber = randomNumber;\n        uint bet = c.latestBet;\n        if (randomNumber == c.betChoice) {\n            c.balance += bet;\n            c.wins += 1;\n        } else {\n            c.losses += 1;\n        }\n\n\n        emit wallet(playerWallet);\n        emit betAmount(bet);\n        emit generatedRandomNumber(randomNumber);\n        emit wins(c.wins);\n        emit losses(c.losses);\n\n    }\n\n    function playerBet(uint amount, uint betChoice)\n        payable\n        public\n    {\n        require(msg.value == amount);\n        require(players[msg.sender].waiting == false);\n        \n\n\n        uint256 QUERY_EXECUTION_DELAY = 0; // NOTE: The datasource currently does not support delays > 0!\n        uint256 GAS_FOR_CALLBACK = 200000;\n        \n        bytes32 queryId = provable_newRandomDSQuery(\n            QUERY_EXECUTION_DELAY,\n            NUM_RANDOM_BYTES_REQUESTED,\n            GAS_FOR_CALLBACK\n        );\n        \n        queries[queryId] = msg.sender;\n\n        Player storage c = players[msg.sender];\n            c.latestBet = amount;\n            c.waiting = true;\n            c.betChoice = betChoice;\n\n        emit oracleId(queryId);\n        emit LogNewProvableQuery(\"Provable query was sent, standing by for the answer...\");\n    }\n\n}\n\n\n\n",
  "sourcePath": "/home/rodrigo/Documents/IvanOnTech/coin-flip-dapp/coin-flip-dapp/contracts/CoinFlip.sol",
  "compiler": {
    "name": "solc",
    "version": "0.5.0+commit.1d4f565a.Emscripten.clang"
  },
  "schemaVersion": "3.2.5",
  "updatedAt": "2020-11-01T15:49:59.108Z",
  "networkType": "ethereum",
  "devdoc": {
    "methods": {}
  },
  "userdoc": {
    "methods": {}
  }
}