{
  "contractName": "CoinFlip",
  "abi": [
    {
      "anonymous": false,
      "inputs": [
        {
          "indexed": false,
          "internalType": "uint256",
          "name": "result",
          "type": "uint256"
        }
      ],
      "name": "Result",
      "type": "event"
    },
    {
      "inputs": [
        {
          "internalType": "address",
          "name": "",
          "type": "address"
        }
      ],
      "name": "players",
      "outputs": [
        {
          "internalType": "uint256",
          "name": "balance",
          "type": "uint256"
        },
        {
          "internalType": "address payable",
          "name": "id",
          "type": "address"
        }
      ],
      "stateMutability": "view",
      "type": "function",
      "constant": true
    },
    {
      "inputs": [
        {
          "internalType": "uint256",
          "name": "amount",
          "type": "uint256"
        }
      ],
      "name": "playerBet",
      "outputs": [],
      "stateMutability": "payable",
      "type": "function",
      "payable": true
    },
    {
      "inputs": [],
      "name": "random",
      "outputs": [
        {
          "internalType": "uint256",
          "name": "",
          "type": "uint256"
        }
      ],
      "stateMutability": "view",
      "type": "function",
      "constant": true
    },
    {
      "inputs": [],
      "name": "getContractBalance",
      "outputs": [
        {
          "internalType": "uint256",
          "name": "",
          "type": "uint256"
        }
      ],
      "stateMutability": "view",
      "type": "function",
      "constant": true
    },
    {
      "inputs": [],
      "name": "userBalance",
      "outputs": [
        {
          "internalType": "uint256",
          "name": "balance",
          "type": "uint256"
        }
      ],
      "stateMutability": "view",
      "type": "function",
      "constant": true
    },
    {
      "inputs": [],
      "name": "withdrawPlayerBalance",
      "outputs": [],
      "stateMutability": "nonpayable",
      "type": "function"
    }
  ],
  "bytecode": "0x608060405234801561001057600080fd5b506104a7806100206000396000f3fe6080604052600436106100555760003560e01c80630dea35bf1461005a5780635ec01e4d146100885780636f9fb98a146100b3578063bf152765146100de578063d325101a14610109578063e2eb41ff14610120575b600080fd5b6100866004803603602081101561007057600080fd5b81019080803590602001909291905050506101a2565b005b34801561009457600080fd5b5061009d610297565b6040518082815260200191505060405180910390f35b3480156100bf57600080fd5b506100c86102a9565b6040518082815260200191505060405180910390f35b3480156100ea57600080fd5b506100f36102b1565b6040518082815260200191505060405180910390f35b34801561011557600080fd5b5061011e6102fa565b005b34801561012c57600080fd5b5061016f6004803603602081101561014357600080fd5b81019080803573ffffffffffffffffffffffffffffffffffffffff16906020019092919050505061042d565b604051808381526020018273ffffffffffffffffffffffffffffffffffffffff1681526020019250505060405180910390f35b8034146101ae57600080fd5b60008060003373ffffffffffffffffffffffffffffffffffffffff1673ffffffffffffffffffffffffffffffffffffffff1681526020019081526020016000209050338160010160006101000a81548173ffffffffffffffffffffffffffffffffffffffff021916908373ffffffffffffffffffffffffffffffffffffffff160217905550600061023d610297565b9050600181141561025b578282600001600082825401925050819055505b7fa9bb0fa194e939eadb11be8d62dd4a16e0f5e89f37fb73fa7f0f8446f1abba61816040518082815260200191505060405180910390a1505050565b6000600242816102a357fe5b06905090565b600047905090565b60008060003373ffffffffffffffffffffffffffffffffffffffff1673ffffffffffffffffffffffffffffffffffffffff16815260200190815260200160002060000154905090565b60008060003373ffffffffffffffffffffffffffffffffffffffff1673ffffffffffffffffffffffffffffffffffffffff168152602001908152602001600020600001541161034857600080fd5b60008060003373ffffffffffffffffffffffffffffffffffffffff1673ffffffffffffffffffffffffffffffffffffffff1681526020019081526020016000206000015490503373ffffffffffffffffffffffffffffffffffffffff166108fc829081150290604051600060405180830381858888f193505050501580156103d4573d6000803e3d6000fd5b5060008060003373ffffffffffffffffffffffffffffffffffffffff1673ffffffffffffffffffffffffffffffffffffffff16815260200190815260200160002090508181600001600082825403925050819055505050565b60006020528060005260406000206000915090508060000154908060010160009054906101000a900473ffffffffffffffffffffffffffffffffffffffff1690508256fea264697066735822122014177940b0d9d06c809994099e1f2eddfe6a2442bc4acdc88fba4c62e51ac2b864736f6c63430007000033",
  "immutableReferences": {},
  "source": "// SPDX-License-Identifier: MIT\npragma solidity 0.7.0;\n\ncontract CoinFlip {\n    \n    event Result (uint result);\n\n    struct Player {\n        uint balance;\n        address payable id;\n    }\n    \n    mapping(address => Player) public players;\n\n    function playerBet(uint amount) public payable {\n        require(msg.value == amount);\n        Player storage c = players[msg.sender];\n        \n        c.id = msg.sender;\n        uint result = random();\n\n        if (result == 1) {\n            c.balance += amount;\n        }\n        emit Result(result);\n    }\n\n    // pseudo-random function returns a 1 or 0 (simulates 50% odds)\n    function random() public view returns (uint) {\n        return block.timestamp % 2;\n    }\n    \n    // returns this contract's current balance\n    function getContractBalance() public view returns (uint) {\n        return address(this).balance;\n    }\n\n    // returns msg.senders (player) balance\n    function userBalance() public view returns (uint balance) {\n        return players[msg.sender].balance;\n    }\n    \n    // withdraw Player winnings\n    function withdrawPlayerBalance() public {\n        require(players[msg.sender].balance > 0);\n        uint amount = players[msg.sender].balance;\n        msg.sender.transfer(amount);\n        Player storage c = players[msg.sender];\n        c.balance -= amount;\n    }\n\n}",
  "sourcePath": "/home/rodrigo/Documents/IvanOnTech/coin-flip-dapp/coin-flip-dapp/contracts/CoinFlip.sol",
  "compiler": {
    "name": "solc",
    "version": "0.7.0+commit.9e61f92b.Emscripten.clang"
  },
  "schemaVersion": "3.2.5",
  "updatedAt": "2020-10-28T22:21:04.171Z",
  "networkType": "ethereum",
  "devdoc": {
    "kind": "dev",
    "methods": {},
    "version": 1
  },
  "userdoc": {
    "kind": "user",
    "methods": {},
    "version": 1
  }
}